:020000040000FA
:0400000007EF00F016
:0A0008005E8237ED10F08EEF27F056
:1008000000202020202000424F4F53540025640038
:0108100000E7
:1008120070EC32F0060ED66E000E0101B36F000EC0
:10082200B26FD58E91EC24F0410E0101B06FEF0E44
:10083200E82EFED7B02FFCD700D0010E2CEC34F0FE
:10084200410E0101B06FEF0EE82EFED7B02FFCD79C
:1008520000D0380E2CEC34F0410E0101B06FEF0ED7
:10086200E82EFED7B02FFCD700D00C0E2CEC34F0C3
:10087200ADEC34F099EC31F07BEC33F0F4EC2DF08C
:10088200A5EC2DF056EC2DF007EC2DF092EC2EF0AD
:10089200EAEC34F0000E0101B56F000EB46F8D94D6
:1008A2008D92F28E9D9A9D9857EF04F00101FC51B2
:1008B200FD11D8A45FEF04F061EF04F065EF04F0DE
:1008C20043EC2EF065EF04F00101CE05CF11D8A460
:1008D2006DEF04F06FEF04F091EF04F0CC05CD1151
:1008E200D8A476EF04F078EF04F091EF04F0010E53
:1008F2000001D325D36F000ED421D46FF4EC2DF078
:10090200000E0101CD6F000ECC6F000E0001E46FEE
:10091200010EE36F92EC2EF0DCEC30F091EF04F07C
:10092200020E0101CE19CF11D8A49AEF04F09CEF68
:1009320004F0BDEF04F0CC05CD11D8A4A3EF04F070
:10094200A5EF04F0BDEF04F0010ED425D46F000E24
:10095200D521D56FA5EC2DF0000E0101CD6F000E53
:10096200CC6F000E0001E46F010EE36F92EC2EF0EB
:10097200DCEC30F0BDEF04F0030E0101CE19CF1113
:10098200D8A4C6EF04F0C8EF04F0E9EF04F0CC05F8
:10099200CD11D8A4CFEF04F0D1EF04F0E9EF04F0C9
:1009A200010ED225D26F000ED321D36F56EC2DF05B
:1009B200000E0101CD6F000ECC6F000E0001E46F3E
:1009C200010EE36F92EC2EF0DCEC30F0E9EF04F074
:1009D200040E0101CE19CF11D8A4F2EF04F0F4EF06
:1009E20004F015EF05F0CC05CD11D8A4FBEF04F00F
:1009F200FDEF04F015EF05F0010ED025D06F000ECB
:100A0200D121D16F07EC2DF0000E0101CD6F000E48
:100A1200CC6F000E0001E46F010EE36F92EC2EF03A
:100A2200DCEC30F015EF05F00101E205E311D8A48A
:100A32001DEF05F01FEF05F089EF05F0D5C0D6F1E7
:100A4200D6C0D7F1D605D711D8A42AEF05F02CEFDE
:100A520005F039EF05F0000E0001D86F000ED76FD8
:100A6200D7C078F0D8C079F076EC1BF039EF05F0FA
:100A7200020E0101D619D711D8A442EF05F044EFB6
:100A820005F051EF05F0000E0001D86F070ED76F89
:100A9200D7C078F0D8C079F076EC1BF051EF05F0B2
:100AA200030E0101D619D711D8A45AEF05F05CEF55
:100AB20005F069EF05F0000E0001D86F0B0ED76F3D
:100AC200D7C078F0D8C079F076EC1BF069EF05F06A
:100AD200040E0101D619D711D8A472EF05F074EFF4
:100AE20005F081EF05F0000E0001D86F0F0ED76FF1
:100AF200D7C078F0D8C079F076EC1BF081EF05F022
:100B02008D82000E0101E36F000EE26F89EF05F0A6
:100B1200FC05FD11D8A490EF05F092EF05F01DEF52
:100B220006F081B297EF05F099EF05F0A2EF05F01C
:100B320081A09EEF05F0A0EF05F01DEF06F0A2EFF9
:100B420005F0000EC76F000EC66F43EC2EF0000ECC
:100B52000001AC6FFA0EAB6F1DEC28F077EC22F0BF
:100B620086C0D6F187C0D7F10101D605D711D8A426
:100B7200BDEF05F0BFEF05F0C7EF05F0D7C078F085
:100B8200D8C079F076EC1BF0C7EF05F0020E010138
:100B9200D619D711D8A4D0EF05F0D2EF05F0DAEFCD
:100BA20005F0D7C078F0D8C079F076EC1BF0DAEF18
:100BB20005F0030E0101D619D711D8A4E3EF05F011
:100BC200E5EF05F0EDEF05F0D7C078F0D8C079F089
:100BD20076EC1BF0EDEF05F0040E0101D619D711EA
:100BE200D8A4F6EF05F0F8EF05F000EF06F0D7C055
:100BF20078F0D8C079F076EC1BF000EF06F0000E2A
:100C02000101FD6F000EFC6F000E0001D46F000E9B
:100C1200D36F000E0101D56F000ED46F000E0001DC
:100C2200E46F010EE36F92EC2EF043EC2EF08D8216
:100C32001DEF06F01DEF06F081A222EF06F024EF71
:100C420006F061EF06F00101D605D711D8A42CEF0A
:100C520006F02EEF06F061EF06F0000E0001AC6F19
:100C6200FA0EAB6F1DEC28F0000E0101DD6F010ED4
:100C7200DC6F000E0001E46F010EE36F000E010154
:100C8200CD6F010ECC6F000E0001DF6F000EE06F22
:100C9200FA0EE16F430EE26F000E0101DB6F000EF0
:100CA200DA6F000ECF6F000ECE6F000EE16F010EF5
:100CB200E06F000E0001D26F000ED16F61EF06F0FF
:100CC20081A466EF06F068EF06F0A6EF06F0020ECA
:100CD2000101D619D711D8A471EF06F073EF06F00F
:100CE200A6EF06F0000E0001AC6FFA0EAB6F1DEC22
:100CF20028F0000E0101DD6F010EDC6F000E000115
:100D0200E46F010EE36F000E0101CD6F010ECC6F97
:100D1200000E0001DF6F000EE06FFA0EE16F430E6E
:100D2200E26F000E0101DB6F000EDA6F000ECF6F73
:100D3200000ECE6F000EE16F010EE06F000E00019B
:100D4200D26F000ED16FA6EF06F081A0ABEF06F0D6
:100D5200ADEF06F0F2EF06F082A0B2EF06F0B4EFCC
:100D620006F0F2EF06F0030E0101D619D711D8A44E
:100D7200BDEF06F0BFEF06F0F2EF06F0000E000145
:100D8200AC6FFA0EAB6F1DEC28F0000E0101DD6FA7
:100D9200010EDC6F000E0001E46F010EE36F000E26
:100DA2000101CD6F010ECC6F000E0001DF6F000E4E
:100DB200E06FFA0EE16F430EE26F000E0101DB6F8E
:100DC200000EDA6F000ECF6F000ECE6F000EE16FD5
:100DD200010EE06F000E0001D26F000ED16FF2EF34
:100DE20006F081A0F7EF06F0F9EF06F03EEF07F00C
:100DF20082B0FEEF06F000EF07F03EEF07F0040EC0
:100E02000101D619D711D8A409EF07F00BEF07F0AB
:100E12003EEF07F0000E0001AC6FFA0EAB6F1DEC57
:100E220028F0000E0101DD6F010EDC6F000E0001E3
:100E3200E46F010EE36F000E0101CD6F010ECC6F66
:100E4200000E0001DF6F000EE06FFA0EE16F430E3D
:100E5200E26F000E0101DB6F000EDA6F000ECF6F42
:100E6200000ECE6F000EE16F010EE06F000E00016A
:100E7200D26F000ED16F3EEF07F00101E005E111E4
:100E8200D8A446EF07F048EF07F0EAEF08F0DC05D8
:100E9200DD11D8A44FEF07F051EF07F0EAEF08F0A9
:100EA200000E0001E66F000EE56F8D940101D6057C
:100EB200D711D8A45FEF07F061EF07F0AFEF07F0AB
:100EC200DC05DD11D8A468EF07F06AEF07F0AFEF99
:100ED20007F0000E0001D66F010ED56F9DEF07F0EF
:100EE200D7C078F0D8C079F076EC1BF0DFC078F08C
:100EF200E0C079F0E1C07AF0E2C07BF0E7EC23F0E9
:100F020078C0ABF079C0ACF01DEC28F00101DA0535
:100F1200DB11D8A48FEF07F091EF07F098EF07F0FD
:100F2200000E0001E66F010EE56FAFEF07F0000162
:100F3200D74BD82B9DEF07F0D8BFA9EF07F0D851B8
:100F420009E1040ED75DD8A0A9EF07F0ABEF07F0D7
:100F520071EF07F0AFEF07F0AFEF07F0020E0101FC
:100F6200D619D711D8A4B8EF07F0BAEF07F009EFF6
:100F720008F0DC05DD11D8A4C1EF07F0C3EF07F0DC
:100F820009EF08F0000E0001D66F020ED56FF7EFE1
:100F920007F0D7C078F0D8C079F076EC1BF0DFC04C
:100FA20078F0E0C079F0E1C07AF0E2C07BF0E7ECE3
:100FB20023F078C0ABF079C0ACF01DEC28F0010151
:100FC200DA05DB11D8A4E8EF07F0EAEF07F0F1EF5A
:100FD20007F0000E0001E66F010EE56F09EF08F061
:100FE2000001D707D8A0D807F7EF07F0D8BF05EF61
:100FF20008F0D85107E1040ED75DD8B003EF08F02E
:1010020005EF08F0CAEF07F009EF08F009EF08F062
:10101200030E0101D619D711D8A412EF08F014EF6C
:1010220008F063EF08F0DC05DD11D8A41BEF08F02F
:101032001DEF08F063EF08F0000E0001D66F030EFB
:10104200D56F51EF08F0D7C078F0D8C079F076ECC0
:101052001BF0DFC078F0E0C079F0E1C07AF0E2C0C6
:101062007BF0E7EC23F078C0ABF079C0ACF01DEC7C
:1010720028F00101DA05DB11D8A442EF08F044EFB1
:1010820008F04BEF08F0000E0001E66F010EE56F6D
:1010920063EF08F00001D707D8A0D80751EF08F096
:1010A200D8BF5FEF08F0D85107E1080ED75DD8B07E
:1010B2005DEF08F05FEF08F024EF08F063EF08F04F
:1010C20063EF08F0040E0101D619D711D8A46CEF12
:1010D20008F06EEF08F0BDEF08F0DC05DD11D8A4D2
:1010E20075EF08F077EF08F0BDEF08F0000E000191
:1010F200D66F040ED56FABEF08F0D7C078F0D8C02A
:1011020079F076EC1BF0DFC078F0E0C079F0E1C056
:101112007AF0E2C07BF0E7EC23F078C0ABF079C064
:10112200ACF01DEC28F00101DA05DB11D8A49CEF2C
:1011320008F09EEF08F0A5EF08F0000E0001E66F40
:10114200010EE56FBDEF08F00001D707D8A0D80760
:10115200ABEF08F0D8BFB9EF08F0D85107E10C0E99
:10116200D75DD8B0B7EF08F0B9EF08F07EEF08F01E
:10117200BDEF08F0BDEF08F0000E0101E16F000EB7
:10118200E06F77EC22F086C0D6F187C0D7F101017B
:10119200DA05DB11D8A4D0EF08F0D2EF08F0D5EFD2
:1011A20008F08D94D6EF08F08D848D92DFC078F030
:1011B200E0C079F0E1C07AF0E2C07BF0E7EC23F026
:1011C20078C0ABF079C0ACF01DEC28F08D94EAEF5A
:1011D20008F00101E051E111D8A4F2EF08F0F4EFB8
:1011E20008F0B7EF0CF0DC05DD11D8A4FBEF08F036
:1011F200FDEF08F0B7EF0CF0D605D711D8A404EF35
:1012020009F006EF09F0E7EF09F0DC05DD11D8A4DB
:101212000DEF09F00FEF09F0E7EF09F0000E000102
:10122200D86F030ED76F72EF09F0D72906E1D829DC
:10123200D8A41EEF09F020EF09F039EF09F08D92E2
:10124200000E0101E36F010EE26F000EDD6F000E72
:10125200DC6F000EDB6F010EDA6FD5C0CEF1D6C0A7
:10126200CFF1000E0001E66F010EE56F39EF09F0D4
:10127200D72908E1D829D8B441EF09F043EF09F0A2
:101282005CEF09F0D7C078F0D8C079F076EC1BF0AB
:101292008D82DFC078F0E0C079F0E1C07AF0E2C080
:1012A2007BF0E7EC23F078C0ABF079C0ACF01DEC3A
:1012B20028F05CEF09F00101DA05DB11D8A464EF34
:1012C20009F066EF09F06CEF09F0000EDB6F000E1B
:1012D200DA6F81EF09F00001D707D8A0D80772EFC3
:1012E20009F0D8AF7DEF09F0D729FF0ED859D8B051
:1012F2007DEF09F07FEF09F016EF09F081EF09F0B9
:101302000101DC05DD11D8A489EF09F08BEF09F0AA
:10131200E7EF09F0BAEF09F0BAEF09F0D7C078F0B9
:10132200D8C079F076EC1BF0DFC078F0E0C079F03D
:10133200E1C07AF0E2C07BF0E7EC23F078C0ABF0DA
:1013420079C0ACF01DEC28F00101DA05DB11D8A45C
:10135200ADEF09F0AFEF09F0B5EF09F0000EDB6F6A
:10136200000EDA6FCBEF09F00001D74BD82BBAEFA2
:1013720009F00001D8BFC7EF09F0D85109E1040E06
:10138200D75DD8A0C7EF09F0C9EF09F08FEF09F0D8
:10139200CBEF09F0000E0001D66F010ED56F8D84E0
:1013A2008D92DFC078F0E0C079F0E1C07AF0E2C05F
:1013B2007BF0E7EC23F078C0ABF079C0ACF01DEC29
:1013C20028F08D94E7EF09F0E7EF09F0020E010132
:1013D200D619D711D8A4F0EF09F0F2EF09F0D4EF43
:1013E2000AF0DC05DD11D8A4F9EF09F0FBEF09F0F2
:1013F200D4EF0AF0000E0001D86F040ED76F5DEF34
:101402000AF0080ED719D811D8A40AEF0AF00CEF87
:101412000AF025EF0AF08D92000E0101E36F010E32
:10142200E26F000EDD6F000EDC6F000EDB6F010E4F
:10143200DA6FD5C0CEF1D6C0CFF1000E0001E66F53
:10144200010EE56F25EF0AF0080ED719D811D8B4AE
:101452002DEF0AF02FEF0AF048EF0AF0D7C078F02C
:10146200D8C079F076EC1BF08D82DFC078F0E0C056
:1014720079F0E1C07AF0E2C07BF0E7EC23F078C0CB
:10148200ABF079C0ACF01DEC28F048EF0AF0010196
:10149200DA05DB11D8A450EF0AF052EF0AF058EF48
:1014A2000AF0000EDB6F000EDA6F6DEF0AF000013A
:1014B200D74BD82B5DEF0AF0D8BF69EF0AF0D851AD
:1014C20009E1090ED75DD8A069EF0AF06BEF0AF0C7
:1014D20002EF0AF06DEF0AF00101DC05DD11D8A47C
:1014E20075EF0AF077EF0AF0D4EF0AF0A7EF0AF0EF
:1014F200A7EF0AF0D7C078F0D8C079F076EC1BF0ED
:10150200DFC078F0E0C079F0E1C07AF0E2C07BF0B1
:10151200E7EC23F078C0ABF079C0ACF01DEC28F01A
:101522000101DA05DB11D8A499EF0AF09BEF0AF06A
:10153200A1EF0AF0000EDB6F000EDA6FB8EF0AF0CF
:101542000001D707D8A0D807A7EF0AF00001D8BF3B
:10155200B6EF0AF0D85107E1040ED75DD8B0B4EF68
:101562000AF0B6EF0AF07BEF0AF0B8EF0AF0000ECD
:101572000001D66F020ED56F8D848D92DFC078F098
:10158200E0C079F0E1C07AF0E2C07BF0E7EC23F052
:1015920078C0ABF079C0ACF01DEC28F08D94D4EF9C
:1015A2000AF0D4EF0AF0030E0101D619D711D8A41C
:1015B200DDEF0AF0DFEF0AF0C1EF0BF0DC05DD1121
:1015C200D8A4E6EF0AF0E8EF0AF0C1EF0BF0000E44
:1015D2000001D86F080ED76F4AEF0BF00C0ED71927
:1015E200D811D8A4F7EF0AF0F9EF0AF012EF0BF0D6
:1015F2008D92000E0101E36F010EE26F000EDD6FAE
:10160200000EDC6F000EDB6F010EDA6FD5C0CEF17B
:10161200D6C0CFF1000E0001E66F010EE56F12EFAA
:101622000BF00C0ED719D811D8B41AEF0BF01CEF2F
:101632000BF035EF0BF0D7C078F0D8C079F076EC2C
:101642001BF08D82DFC078F0E0C079F0E1C07AF063
:10165200E2C07BF0E7EC23F078C0ABF079C0ACF0ED
:101662001DEC28F035EF0BF00101DA05DB11D8A4EF
:101672003DEF0BF03FEF0BF045EF0BF0000EDB6F91
:10168200000EDA6F5AEF0BF00001D74BD82B4AEF5E
:101692000BF0D8BF56EF0BF0D85109E10D0ED75D14
:1016A200D8A056EF0BF058EF0BF0EFEF0AF05AEF1D
:1016B2000BF00101DC05DD11D8A462EF0BF064EF41
:1016C2000BF0C1EF0BF094EF0BF094EF0BF0D7C0DF
:1016D20078F0D8C079F076EC1BF0DFC078F0E0C08B
:1016E20079F0E1C07AF0E2C07BF0E7EC23F078C059
:1016F200ABF079C0ACF01DEC28F00101DA05DB118A
:10170200D8A486EF0BF088EF0BF08EEF0BF0000EF3
:10171200DB6F000EDA6FA5EF0BF00001D707D8A040
:10172200D80794EF0BF00001D8BFA3EF0BF0D8510C
:1017320007E1080ED75DD8B0A1EF0BF0A3EF0BF0D5
:1017420068EF0BF0A5EF0BF0000E0001D66F030E51
:10175200D56F8D848D92DFC078F0E0C079F0E1C062
:101762007AF0E2C07BF0E7EC23F078C0ABF079C00E
:10177200ACF01DEC28F08D94C1EF0BF0C1EF0BF033
:10178200040E0101D619D711D8A4CAEF0BF0CCEF81
:101792000BF0AFEF0CF0DC05DD11D8A4D3EF0BF0AA
:1017A200D5EF0BF0AFEF0CF0000E0001D86F0C0E6E
:1017B200D76F37EF0CF0100ED719D811D8A4E4EF79
:1017C2000BF0E6EF0BF0FFEF0BF08D92000E010134
:1017D200E36F010EE26F000EDD6F000EDC6F000E94
:1017E200DB6F010EDA6FD5C0CEF1D6C0CFF1000E9D
:1017F2000001E66F010EE56FFFEF0BF0100ED71937
:10180200D811D8B407EF0CF009EF0CF022EF0CF06E
:10181200D7C078F0D8C079F076EC1BF08D82DFC0AB
:1018220078F0E0C079F0E1C07AF0E2C07BF0E7EC5A
:1018320023F078C0ABF079C0ACF01DEC28F022EFB9
:101842000CF00101DA05DB11D8A42AEF0CF02CEF21
:101852000CF032EF0CF0000EDB6F000EDA6F47EF88
:101862000CF00001D74BD82B37EF0CF0D8BF43EF69
:101872000CF0D85109E1110ED75DD8A043EF0CF05E
:1018820045EF0CF0DCEF0BF047EF0CF00101DC054B
:10189200DD11D8A44FEF0CF051EF0CF0AFEF0CF0CC
:1018A20081EF0CF081EF0CF0D7C078F0D8C079F05E
:1018B20076EC1BF0DFC078F0E0C079F0E1C07AF09E
:1018C200E2C07BF0E7EC23F078C0ABF079C0ACF07B
:1018D2001DEC28F00101DA05DB11D8A473EF0CF03E
:1018E20075EF0CF07BEF0CF0000EDB6F000EDA6F81
:1018F20092EF0CF00001D707D8A0D80781EF0CF0C7
:101902000001D8BF90EF0CF0D85107E10C0ED75D63
:10191200D8B08EEF0CF090EF0CF055EF0CF092EF88
:101922000CF0000E0001D66F040ED56F8D848D92DF
:10193200DFC078F0E0C079F0E1C07AF0E2C07BF07D
:10194200E7EC23F078C0ABF079C0ACF01DEC28F0E6
:101952008D828D94AFEF0CF0AFEF0CF077EC22F0AC
:1019620086C0D6F187C0D7F1B7EF0CF00001D4BF23
:10197200C4EF0CF0D45109E1050ED35DD8A0C4EF39
:101982000CF0C6EF0CF093EF0DF0000E0101CB6FDF
:10199200010ECA6FF29E8D92000EB76F000EB66FE7
:1019A200B7BFDDEF0CF0B75109E1030EB65DD8A069
:1019B200DDEF0CF0DFEF0CF0E3EF0CF02EEF0DF0AB
:1019C2002EEF0DF0200E0101B06F290EE82EFED78A
:1019D200B02FFCD700D0010E2CEC34F0000E000129
:1019E200AC6FFA0EAB6F1DEC28F0CEEC34F0000EAB
:1019F2000001AC6FFA0EAB6F1DEC28F0200E010156
:101A0200B06F290EE82EFED7B02FFCD700D0010E02
:101A12002CEC34F0000E0001AC6FFA0EAB6F1DEC33
:101A220028F0CEEC34F0000E0001AC6FFA0EAB6F72
:101A32001DEC28F00101B64BB72BB7BF2AEF0DF012
:101A4200B75109E1030EB65DD8A02AEF0DF02CEFD5
:101A52000DF0E3EF0CF02EEF0DF0200E0101B06F50
:101A6200290EE82EFED7B02FFCD700D0010E2CECA9
:101A720034F097EC30F0090E0001AC6FC40EAB6F7E
:101A82001DEC28F0090E0001AC6FC40EAB6F1DEC0B
:101A920028F07AEC34F0030E0001AC6FE80EAB6F65
:101AA2001DEC28F09CEC34F0030E0001AC6FE80E44
:101AB200AB6F1DEC28F08BEC34F0030E0001AC6F21
:101AC200E80EAB6F1DEC28F01F0E0101B16F710E15
:101AD200B06F1E0EE82EFED7B02FFCD7B12FFAD76B
:101AE20000F0B5EC2CF07A0E0101B16FC10EB06FAF
:101AF200810EE82EFED7B02FFCD7B12FFAD700D037
:101B02007A0E0101B16FC10EB06F810EE82EFED7C1
:101B1200B02FFCD7B12FFAD700D0C6EC25F0FF00CA
:101B220057EF04F00101D5BFA0EF0DF0D55109E147
:101B3200050ED45DD8A0A0EF0DF0A2EF0DF069EF75
:101B42000EF08D92000EB96F000EB86FB9BFB3EFF1
:101B52000DF0B95109E1030EB85DD8A0B3EF0DF055
:101B6200B5EF0DF0B9EF0DF004EF0EF004EF0EF04B
:101B7200200E0101B06F290EE82EFED7B02FFCD740
:101B820000D0010E2CEC34F0000E0001AC6FFA0E06
:101B9200AB6F1DEC28F0CEEC34F0000E0001AC6F00
:101BA200FA0EAB6F1DEC28F0200E0101B06F290E6A
:101BB200E82EFED7B02FFCD700D0010E2CEC34F06B
:101BC200000E0001AC6FFA0EAB6F1DEC28F0CEECEC
:101BD20034F0000E0001AC6FFA0EAB6F1DEC28F072
:101BE2000101B84BB92BB9BF00EF0EF0B95109E1B1
:101BF200030EB85DD8A000EF0EF002EF0EF0B9EFC1
:101C02000DF004EF0EF0200E0101B06F290EE82E48
:101C1200FED7B02FFCD700D0010E2CEC34F052ECE2
:101C220030F0090E0001AC6FC40EAB6F1DEC28F052
:101C3200090E0001AC6FC40EAB6F1DEC28F07AECFC
:101C420034F0030E0001AC6FE80EAB6F1DEC28F010
:101C52009CEC34F0030E0001AC6FE80EAB6F1DEC90
:101C620028F08BEC34F0030E0001AC6FE80EAB6F82
:101C72001DEC28F01F0E0101B16F710EB06F1E0E28
:101C8200E82EFED7B02FFCD7B12FFAD700F0B5EC73
:101C92002CF07A0E0101B16FC10EB06F810EE82EE9
:101CA200FED7B02FFCD7B12FFAD700D07A0E0101A0
:101CB200B16FC10EB06F810EE82EFED7B02FFCD7E8
:101CC200B12FFAD700D02EEC25F0FF0057EF04F029
:101CD2000101D3BF76EF0EF0D35109E1050ED25DBB
:101CE200D8A076EF0EF078EF0EF04AEF0FF0000E6C
:101CF200BB6F000EBA6FBBBF88EF0EF0BB5109E19C
:101D0200030EBA5DD8A088EF0EF08AEF0EF08EEFC8
:101D12000EF0D9EF0EF0D9EF0EF0200E0101B06FE8
:101D2200290EE82EFED7B02FFCD700D0010E2CECE6
:101D320034F0000E0001AC6FFA0EAB6F1DEC28F010
:101D4200CEEC34F0000E0001AC6FFA0EAB6F1DEC5E
:101D520028F0200E0101B06F290EE82EFED7B02F19
:101D6200FCD700D0010E2CEC34F0000E0001AC6F59
:101D7200FA0EAB6F1DEC28F0CEEC34F0000E000131
:101D8200AC6FFA0EAB6F1DEC28F00101BA4BBB2B06
:101D9200BBBFD5EF0EF0BB5109E1030EBA5DD8A06F
:101DA200D5EF0EF0D7EF0EF08EEF0EF0D9EF0EF06A
:101DB200200E0101B06F290EE82EFED7B02FFCD7FE
:101DC20000D0010E2CEC34F00DEC30F0990E010134
:101DD200B16F310EB06FA20EE82EFED7B02FFCD736
:101DE200B12FFAD700F0990E0101B16F310EB06F29
:101DF200A20EE82EFED7B02FFCD7B12FFAD700F0F3
:101E02007AEC34F0030E0001AC6FE80EAB6F1DEC00
:101E120028F09CEC34F0030E0001AC6FE80EAB6FBF
:101E22001DEC28F08BEC34F0030E0001AC6FE80ED1
:101E3200AB6F1DEC28F01F0E0101B16F710EB06F78
:101E42001E0EE82EFED7B02FFCD7B12FFAD700F026
:101E5200B5EC2CF07A0E0101B16FC10EB06F810E9C
:101E6200E82EFED7B02FFCD7B12FFAD700D07A0ECA
:101E72000101B16FC10EB06F810EE82EFED7B02FF7
:101E8200FCD7B12FFAD700D0F6EC26F0FF0057EFBF
:101E920004F00101D1BF57EF0FF0D15109E1050E56
:101EA200D05DD8A057EF0FF059EF0FF057EF04F0C5
:101EB200000EBD6F000EBC6FBDBF69EF0FF0BD51CC
:101EC20009E1030EBC5DD8A069EF0FF06BEF0FF0D4
:101ED2006FEF0FF0BAEF0FF0BAEF0FF0200E010123
:101EE200B06F290EE82EFED7B02FFCD700D0010E1E
:101EF2002CEC34F0000E0001AC6FFA0EAB6F1DEC4F
:101F020028F0CEEC34F0000E0001AC6FFA0EAB6F8D
:101F12001DEC28F0200E0101B06F290EE82EFED72D
:101F2200B02FFCD700D0010E2CEC34F0000E0001D3
:101F3200AC6FFA0EAB6F1DEC28F0CEEC34F0000E55
:101F42000001AC6FFA0EAB6F1DEC28F00101BC4B27
:101F5200BD2BBDBFB6EF0FF0BD5109E1030EBC5D55
:101F6200D8A0B6EF0FF0B8EF0FF06FEF0FF0BAEFA7
:101F72000FF0200E0101B06F290EE82EFED7B02F10
:101F8200FCD700D0010E2CEC34F0C8EC2FF0990EE7
:101F92000101B16F310EB06FA20EE82EFED7B02F45
:101FA200FCD7B12FFAD700F0990E0101B16F310EB3
:101FB200B06FA20EE82EFED7B02FFCD7B12FFAD702
:101FC20000F07AEC34F0030E0001AC6FE80EAB6F58
:101FD2001DEC28F09CEC34F0030E0001AC6FE80E0F
:101FE200AB6F1DEC28F08BEC34F0030E0001AC6FEC
:101FF200E80EAB6F1DEC28F01F0E0101B16F710EE0
:10200200B06F1E0EE82EFED7B02FFCD7B12FFAD735
:1020120000F0B5EC2CF07A0E0101B16FC10EB06F79
:10202200810EE82EFED7B02FFCD7B12FFAD700D001
:102032007A0E0101B16FC10EB06F810EE82EFED78C
:10204200B02FFCD7B12FFAD700D05EEC26F0FF00FC
:1020520057EF04F057EF04F057EF04F057EF04F096
:1020620057EF04F057EF04F007EF00F00600E1CF5E
:102072006EF0E2CF6FF0D9CF70F0DACF71F0F3CF1C
:1020820072F0F4CF73F0F6CF74F0F7CF75F0F8CFAB
:1020920076F0F5CF77F0F2A251EF10F053EF10F097
:1020A200F4EF11F00001E551E611D8A45BEF10F056
:1020B2005DEF10F0F1EF11F082A062EF10F064EF2B
:1020C20010F032EF11F0070E00016D6F170E6C6FFA
:1020D2006A0EE82EFED76C2FFCD76D2FFAD700F0D0
:1020E200000E0101DB6F010EDA6F0B0E0001D71932
:1020F200D811D8A47FEF10F081EF10F0A4EF10F008
:10210200DFC001F0E0C002F0E1C003F0E2C004F081
:10211200000E056E000E066E000E076E3F0E086E74
:1021220021EC16F001C0DFF002C0E0F003C0E1F0E4
:1021320004C0E2F0000E0001D26F010ED16F5BEC21
:1021420031F0F8EF10F00001D105D211D8A4ACEFB4
:1021520010F0AEEF10F0D1EF10F0DFC001F0E0C0F0
:1021620002F0E1C003F0E2C004F0000E056E000EC2
:10217200066E000E076E400E086E21EC16F001C0CE
:10218200DFF002C0E0F003C0E1F004C0E2F0000EB4
:102192000001D26F000ED16F1DEC31F0F8EF10F09C
:1021A200DFC001F0E0C002F0E1C003F0E2C004F0E1
:1021B200000E056E000E066E400E076E3F0E086E94
:1021C20021EC16F001C0DFF002C0E0F003C0E1F044
:1021D20004C0E2F0010E0001E325E36F000EE421EA
:1021E200E46F30EC2FF0F8EF10F0F8EF10F0000190
:1021F200D8BF05EF11F0D85109E1080ED75DD8A07C
:1022020005EF11F007EF11F017EF11F0D8BF13EF40
:1022120011F0D85109E10C0ED75DD8A013EF11F0DF
:1022220015EF11F0F1EF11F017EF11F0000E0101AF
:10223200DD6F000EDC6FD5C0CEF1D6C0CFF1000E3F
:10224200CD6F010ECC6F8D92000EE36F010EE26F27
:10225200000E0001E66F010EE56FF1EF11F0F1EFF4
:1022620011F0070E00016D6F170E6C6F6A0EE82EEB
:10227200FED76C2FFCD76D2FFAD700F0000E0101AC
:10228200DB6F010EDA6F0F0E0001D719D811D8A437
:102292004DEF11F04FEF11F071EF11F0000ED26F10
:1022A200010ED16FDFC001F0E0C002F0E1C003F027
:1022B200E2C004F0000E056E000E066E000E076E00
:1022C2003F0E086E21EC16F001C0DFF002C0E0F014
:1022D20003C0E1F004C0E2F05BEC31F0C5EF11F0B5
:1022E2000001D105D211D8A479EF11F07BEF11F0E2
:1022F2009EEF11F0DFC001F0E0C002F0E1C003F098
:10230200E2C004F0000E056E000E066E000E076EAF
:10231200400E086E21EC16F001C0DFF002C0E0F0C2
:1023220003C0E1F004C0E2F0000E0001D26F000E23
:10233200D16F1DEC31F0C5EF11F0DFC001F0E0C04C
:1023420002F0E1C003F0E2C004F0000E056E000EE0
:10235200066E400E076E3F0E086E21EC16F001C0AD
:10236200DFF002C0E0F003C0E1F004C0E2F0010ED1
:102372000001E325E36F000EE421E46F30EC2FF05F
:10238200C5EF11F0C5EF11F00001D8BFD4EF11F085
:10239200D85107E10C0ED75DD8B0D2EF11F0D4EFCF
:1023A20011F0F1EF11F0000E0101DD6F000EDC6F94
:1023B200D5C0CEF1D6C0CFF1000ECD6F010ECC6FDD
:1023C2008D92000EE36F010EE26F000E0001E66FC8
:1023D200010EE56FF1EF11F0F1EF11F0F1EF11F0F5
:1023E200F292F4EF11F0F0A0F9EF11F0FBEF11F01F
:1023F200C4EF12F00001E551E611D8A403EF12F088
:1024020005EF12F0C1EF12F0070E00016D6F170E0B
:102412006C6F6A0EE82EFED76C2FFCD76D2FFAD7A1
:1024220000F0000E0101DB6F010EDA6F0001D751DF
:10243200D811D8A41FEF12F021EF12F043EF12F0DF
:10244200000ED26F010ED16FDFC001F0E0C002F0CA
:10245200E1C003F0E2C004F0000E056E000E066E4D
:10246200000E076E3F0E086E21EC16F001C0DFF081
:1024720002C0E0F003C0E1F004C0E2F05BEC31F036
:1024820097EF12F00001D105D211D8A44BEF12F050
:102492004DEF12F070EF12F0DFC001F0E0C002F079
:1024A200E1C003F0E2C004F0000E056E000E066EFD
:1024B200000E076E400E086E21EC16F001C0DFF030
:1024C20002C0E0F003C0E1F004C0E2F0000E00013F
:1024D200D26F000ED16F1DEC31F097EF12F0DFC01A
:1024E20001F0E0C002F0E1C003F0E2C004F0000E2F
:1024F200056E000E066E400E076E3F0E086E21EC52
:1025020016F001C0DFF002C0E0F003C0E1F004C049
:10251200E2F0010E0001E325E36F000EE421E46F17
:1025220030EC2FF097EF12F097EF12F00001D8BFC6
:10253200A4EF12F0D85109E1040ED75DD8A0A4EFA0
:1025420012F0A6EF12F0C1EF12F0000E0101DD6FE2
:10255200000EDC6FD5C0CEF1D6C0CFF1000ECD6F2C
:10256200010ECC6F8D92000EE36F010EE26F000E32
:102572000001E66F010EE56FC1EF12F0C1EF12F03C
:10258200F090C4EF12F0F0A2C9EF12F0CBEF12F00C
:10259200A5EF13F00001E551E611D8A4D3EF12F034
:1025A200D5EF12F0A2EF13F0070E00016D6F170EB8
:1025B2006C6F6A0EE82EFED76C2FFCD76D2FFAD700
:1025C20000F0000E0101DB6F010EDA6F070E000151
:1025D200D719D811D8A4F0EF12F0F2EF12F014EFDD
:1025E20013F0000ED26F010ED16FDFC001F0E0C018
:1025F20002F0E1C003F0E2C004F0000E056E000E2E
:10260200066E000E076E3F0E086E21EC16F001C03A
:10261200DFF002C0E0F003C0E1F004C0E2F05BECE6
:1026220031F068EF13F00001D105D211D8A41CEFEC
:1026320013F01EEF13F041EF13F0DFC001F0E0C022
:1026420002F0E1C003F0E2C004F0000E056E000EDD
:10265200066E000E076E400E086E21EC16F001C0E9
:10266200DFF002C0E0F003C0E1F004C0E2F0000ECF
:102672000001D26F000ED16F1DEC31F068EF13F044
:10268200DFC001F0E0C002F0E1C003F0E2C004F0FC
:10269200000E056E000E066E400E076E3F0E086EAF
:1026A20021EC16F001C0DFF002C0E0F003C0E1F05F
:1026B20004C0E2F0010E0001E325E36F000EE42105
:1026C200E46F30EC2FF068EF13F068EF13F00001C5
:1026D200D8BF75EF13F0D85109E1040ED75DD8A029
:1026E20075EF13F077EF13F087EF13F0D8BF83EF96
:1026F20013F0D85109E1080ED75DD8A083EF13F08B
:1027020085EF13F0A2EF13F087EF13F0000E010133
:10271200DD6F000EDC6FD5C0CEF1D6C0CFF1000E5A
:10272200CD6F010ECC6F8D92000EE36F010EE26F42
:10273200000E0001E66F010EE56FA2EF13F0A2EFAB
:1027420013F0F092A5EF13F09EA0AAEF13F0ACEFF6
:1027520013F0D3EF13F00101C84BC92B170EC819A0
:10276200C911D8A4B7EF13F0B9EF13F0D0EF13F0FB
:10277200000EC96F000EC86FCA51CB11D8A4C4EFA6
:1027820013F0C6EF13F0D0EF13F0010EC625C66F9B
:10279200000EC721C76FD0EF13F0D0EF13F09E9059
:1027A200D3EF13F077C0F5FF76C0F8FF75C0F7FFDF
:1027B20074C0F6FF73C0F4FF72C0F3FF71C0DAFF9A
:1027C20070C0D9FF6FC0E2FF6EC0E1FF5E921100E0
:1027D20000018951800B926F89518925986F88AFCA
:1027E200F5EF13F0F7EF13F0FAEF13F09881FAEF29
:1027F20013F09851D8B400EF14F002EF14F017EF71
:1028020014F09829D8A408EF14F00AEF14F014EF8A
:1028120014F0000E866F000E876F000E886F000E98
:10282200896F14EF14F0888F21EF14F0000E866F79
:10283200000E876F000E886F000E896F21EF14F073
:102842008D51800B921B8D518D25976F8CAF2CEF84
:1028520014F02EEF14F031EF14F0978131EF14F0F1
:102862009751D8B437EF14F039EF14F04EEF14F05B
:102872009729D8A43FEF14F041EF14F04BEF14F076
:10288200000E8A6F000E8B6F000E8C6F000E8D6F24
:102892004BEF14F08C8F56EF14F0000E8A6F000E7F
:1028A2008B6F000E8C6F000E8D6F9751D8B45CEF5A
:1028B20014F05EEF14F068EF14F09851D8A464EFAE
:1028C20014F066EF14F074EF14F068EF14F0000ED9
:1028D200866F000E876F000E886F000E896F20EFE3
:1028E20016F020EF16F08C518603F3CF9DF0F4CF53
:1028F2009EF09D51936F946B956B966B9E51996F61
:102902009A6B9B6B9C6B8B518703F3CF9DF0F4CF3B
:102912009EF09D519327000E9423952396239E515A
:102922009927000E9A239B239C238A518803F3CF75
:102932009DF0F4CF9EF09D519327000E9423952392
:1029420096239E519927000E9A239B239C2395C080
:1029520096F094C095F093C094F0936B8A518703DC
:10296200F3CF9DF0F4CF9EF09D5193279E51942377
:10297200000E9523000E96238B518603F3CF9DF014
:10298200F4CF9EF09D5193279E519423000E9523E0
:10299200000E962395C096F094C095F093C094F0E3
:1029A200936B8A518603F3CF9DF0F4CF9EF09D5135
:1029B20093279E519423000E9523000E96238C514B
:1029C2008703F3CF9DF0F4CF9EF09D5199279E513E
:1029D2009A23000E9B23000E9C238B518803F3CF76
:1029E2009DF0F4CF9EF09D5199279E519A23000E9F
:1029F2009B23000E9C238C518803F3CF9DF0F4CFD0
:102A02009EF09D518E6F9E518F6F906B916B90C017
:102A120091F08FC090F08EC08FF08E6B8E519927FF
:102A22008F519A2390519B2391519C2393C08EF0F6
:102A320094C08FF095C090F096C091F0190E27EFD8
:102A420015F0D890913390338F338E33E82E22EFE6
:102A520015F08E5199278F519A2390519B239151B2
:102A62009C2395C096F094C095F093C094F0936B1C
:102A7200975198C08EF08F6B8E27000E8F23820E97
:102A82008E259D6FFF0E8F219E6F5FEF15F0D89000
:102A920099379A379B379C3796AF52EF15F054EF20
:102AA20015F055EF15F09981D890933794379537F3
:102AB20096379D07D8A09E075FEF15F09BAF64EF96
:102AC20015F066EF15F048EF15F068EF15F0000EFF
:102AD200976F96AF6FEF15F071EF15F099EF15F054
:102AE200FF0E93158E6FFF0E94158F6FFF0E9515C7
:102AF200906F7F0E9615916F8E518F1190119111DB
:102B0200D8B486EF15F088EF15F08CEF15F0010EB2
:102B1200976F99EF15F099A191EF15F093EF15F0DA
:102B220099EF15F0010E976F99EF15F099EF15F0E7
:102B32009751D8B49FEF15F0A1EF15F0C9EF15F03A
:102B4200010E9927000E9A239B239C239CA1ACEF94
:102B520015F0AEEF15F0C9EF15F099C08EF09AC0DE
:102B62008FF09BC090F09CC091F0913591339033DF
:102B72008F338E338EC099F08FC09AF090C09BF045
:102B820091C09CF09D4B9E2BC9EF15F0C9EF15F03B
:102B92009EBFD4EF15F09E5108E19D29D8A0D4EF35
:102BA20015F0D6EF15F0E0EF15F0000E996F000E5C
:102BB2009A6F800E9B6F7F0E9C6F14EF16F09EBF74
:102BC200EDEF15F09E5106E19D05D8B0EBEF15F043
:102BD200EDEF15F0F9EF15F0000E996F000E9A6FF8
:102BE200000E9B6F000E9C6F000E926F14EF16F09A
:102BF2009DC098F0FF0E9917FF0E9A177F0E9B1734
:102C0200000E9C1798A108EF16F00AEF16F00DEFD0
:102C120016F09B8F0DEF16F0D89098319C6F14EF41
:102C220016F014EF16F092519C1399C086F09AC0D8
:102C320087F09BC088F09CC089F020EF16F012004C
:102C42000450800B0D6E04500424136E03AE2CEF5F
:102C520016F02EEF16F031EF16F0138031EF16F06A
:102C62001350D8B437EF16F039EF16F04EEF16F0D6
:102C72001328D8A43FEF16F041EF16F04BEF16F0F1
:102C8200000E016E000E026E000E036E000E046E48
:102C92004BEF16F0038E58EF16F0000E016E000E89
:102CA200026E000E036E000E046E58EF16F008500E
:102CB200800B0D1A08500824126E07AE63EF16F04F
:102CC20065EF16F068EF16F0128068EF16F01250FA
:102CD200D8B46EEF16F070EF16F085EF16F01228EA
:102CE200D8A476EF16F078EF16F082EF16F0000E09
:102CF200056E000E066E000E076E000E086E82EF65
:102D020016F0078E8DEF16F0000E056E000E066EA1
:102D1200000E076E000E086E1250D8B493EF16F034
:102D220095EF16F09FEF16F01350D8A49BEF16F014
:102D32009DEF16F0ABEF16F09FEF16F0000E016E4E
:102D4200000E026E000E036E000E046E57EF18F0B6
:102D520057EF18F007500102F3CF18F0F4CF19F033
:102D620018500E6E0F6A106A116A1950146E156AA5
:102D7200166A176A06500202F3CF18F0F4CF19F060
:102D820018500E26000E0F2210221122195014265E
:102D9200000E15221622172205500302F3CF18F057
:102DA200F4CF19F018500E26000E0F221022112215
:102DB20019501426000E15221622172210C011F0E7
:102DC2000FC010F00EC00FF00E6A05500202F3CFD2
:102DD20018F0F4CF19F018500E2619500F22000ED9
:102DE2001022000E112206500102F3CF18F0F4CF88
:102DF20019F018500E2619500F22000E1022000E44
:102E0200112210C011F00FC010F00EC00FF00E6AA8
:102E120005500102F3CF18F0F4CF19F018500E2626
:102E220019500F22000E1022000E1122075002022A
:102E3200F3CF18F0F4CF19F01850142619501522B8
:102E4200000E1622000E172206500302F3CF18F0CE
:102E5200F4CF19F01850142619501522000E16221C
:102E6200000E172207500302F3CF18F0F4CF19F027
:102E72001850096E19500A6E0B6A0C6A0BC00CF0DE
:102E82000AC00BF009C00AF0096A095014260A5058
:102E920015220B5016220C5017220EC009F00FC03B
:102EA2000AF010C00BF011C00CF0190E5EEF17F013
:102EB200D8900C320B320A320932E82E59EF17F051
:102EC200095014260A5015220B5016220C501722B4
:102ED20010C011F00FC010F00EC00FF00E6A1250A9
:102EE20013C009F00A6A0926000E0A22820E09247A
:102EF200186EFF0E0A20196E96EF17F0D89014364E
:102F020015361636173611AE89EF17F08BEF17F01C
:102F12008CEF17F01480D8900E360F36103611361B
:102F22001806D8A0190696EF17F016AE9BEF17F009
:102F32009DEF17F07FEF17F09FEF17F0000E126E64
:102F420011AEA6EF17F0A8EF17F0D0EF17F0FF0EB3
:102F52000E14096EFF0E0F140A6EFF0E10140B6E84
:102F62007F0E11140C6E09500A100B100C10D8B4FD
:102F7200BDEF17F0BFEF17F0C3EF17F0010E126E9F
:102F8200D0EF17F014A0C8EF17F0CAEF17F0D0EF88
:102F920017F0010E126ED0EF17F0D0EF17F01250AB
:102FA200D8B4D6EF17F0D8EF17F000EF18F0010EF3
:102FB2001426000E15221622172217A0E3EF17F08F
:102FC200E5EF17F000EF18F014C009F015C00AF091
:102FD20016C00BF017C00CF00C340C320B320A3254
:102FE200093209C014F00AC015F00BC016F00CC06B
:102FF20017F0184A192A00EF18F000EF18F019BE5E
:103002000BEF18F0195008E11828D8A00BEF18F0B0
:103012000DEF18F017EF18F0000E146E000E156E7B
:10302200800E166E7F0E176E4BEF18F019BE24EF4E
:1030320018F0195006E11804D8B022EF18F024EF66
:1030420018F030EF18F0000E146E000E156E000E20
:10305200166E000E176E000E0D6E4BEF18F018C0B4
:1030620013F0FF0E1416FF0E15167F0E1616000E25
:10307200171613A03FEF18F041EF18F044EF18F0C5
:10308200168E44EF18F0D8901330176E4BEF18F0ED
:103092004BEF18F00D50171214C001F015C002F0DA
:1030A20016C003F017C004F057EF18F0120095C0D5
:1030B200ADF096C0AEF097C0AFF098C0B0F099C036
:1030C200B1F09AC0B2F09BC0B3F09CC0B4F0000162
:1030D200B4BF6EEF18F071EF18F0010E72EF18F036
:1030E200000EAB6FAC6BAB51AC11D8B47BEF18F0E8
:1030F2007DEF18F08FEF18F0B41FB31FB21FB11F8E
:10310200B01FAF1FAE1FAD6D000EAE23AF23B023B5
:10311200B123B223B323B4238FEF18F0CEBF94EFC1
:1031220018F096EF18F099EF18F0CF9399EF18F086
:10313200CEBFA6EF18F0CE5106E1CD05D8B0A4EF70
:1031420018F0A6EF18F0ACEF18F0000EA86F010E01
:10315200A76FB0EF18F0CDC0A7F0CEC0A8F0C0C1E5
:10316200A9F0C1C1AAF0AB51AC11D8A4BBEF18F0C1
:10317200BDEF18F0C6EF18F0CFA5C2EF18F0C4EFFC
:1031820018F0CBEF18F0C6EF18F0A907D8A0AA07DD
:10319200CBEF18F0000EB66F1F0EB56FDB0EB52524
:1031A200D96E020EB621DA6E000EDF6E58EF19F0FC
:1031B200B507D8A0B607DB0EB525D96E020EB6212B
:1031C200DA6EADC078F0AEC079F0AFC07AF0B0C0C0
:1031D2007BF0B1C07CF0B2C07DF0B3C07EF0B4C071
:1031E2007FF00A0E806F000E816F000E826F000E5C
:1031F200836F000E846F000E856F000E866F000EC7
:10320200876FEAEC20F078C09DF079C09EF07AC01A
:103212009FF07BC0A0F07CC0A1F07DC0A2F07EC078
:10322200A3F07FC0A4F09DC08AF09FC08BF0C8ECD1
:1032320033F000018A51300FDF6EA707D8A0A8072C
:10324200A907D8A0AA07ADC078F0AEC079F0AFC088
:103252007AF0B0C07BF0B1C07CF0B2C07DF0B3C0F8
:103262007EF0B4C07FF00A0E806F000E816F000EF8
:10327200826F000E836F000E846F000E856F000E4A
:10328200866F000E876F39EC1FF078C0ADF079C001
:10329200AEF07AC0AFF07BC0B0F07CC0B1F07DC0C0
:1032A200B2F07EC0B3F07FC0B4F058EF19F0000165
:1032B200B6BF64EF19F0B65108E1B505D8A064EFC6
:1032C20019F066EF19F09CEF19F0AD51AE11AF1184
:1032D200B011B111B211B311B411D8A473EF19F036
:1032E20075EF19F0D9EF18F0A8BF82EF19F0A851C5
:1032F20006E1A705D8B080EF19F082EF19F0D9EFF7
:1033020018F0AABF8DEF19F0AA5108E1A905D8A0BB
:103312008DEF19F08FEF19F09CEF19F0CFB394EF06
:1033220019F096EF19F0D9EF18F09CEF19F09CEF15
:1033320019F09CEF19F0AB51AC11D8A4A3EF19F01E
:10334200A5EF19F0AEEF19F0CFA5AAEF19F0ACEF87
:1033520019F0D0EF19F0AEEF19F0B507D8A0B60703
:10336200AB51AC11D8A4B8EF19F0BAEF19F0C0EF15
:1033720019F0000EA66F2B0EA56FC6EF19F0000E06
:10338200A66F2D0EA56FC6EF19F0DB0EB525D96E0F
:10339200020EB621DA6EA5C0DFFFD0EF19F093C09E
:1033A20088F094C089F0DB0EB5258A6F020EB62133
:1033B2008B6FA9C08CF0AAC08DF053EC2AF088C0A4
:1033C20093F089C094F0E6EF19F012001EC036F0B7
:1033D2001FC037F020C038F021C039F022C03AF0C7
:1033E20023C03BF024C03CF025C03DF03DBEFCEFC5
:1033F20019F0FFEF19F0010E00EF1AF0000E346E13
:10340200356A34503510D8B409EF1AF00BEF1AF0C0
:103412001DEF1AF03D1E3C1E3B1E3A1E391E381E81
:10342200371E366C000E3722382239223A223B22CE
:103432003C223D221DEF1AF00001CEBF23EF1AF00D
:1034420025EF1AF028EF1AF0CF9328EF1AF0CEBF2B
:1034520035EF1AF0CE5106E1CD05D8B033EF1AF0B0
:1034620035EF1AF03BEF1AF0000E316E010E306E9E
:103472003FEF1AF0CDC030F0CEC031F0C0C132F013
:10348200C1C133F034503510D8A44AEF1AF04CEFD2
:103492001AF055EF1AF0CFA551EF1AF053EF1AF0C8
:1034A2005AEF1AF055EF1AF03206D8A033065AEF47
:1034B2001AF0000E3F6E1F0E3E6EDB0E3E24D96EDA
:1034C200020E3F20DA6E000EDF6EE6EF1AF03E06C5
:1034D200D8A03F06DB0E3E24D96E020E3F20DA6EE4
:1034E20036C001F037C002F038C003F039C004F032
:1034F2003AC005F03BC006F03CC007F03DC008F002
:103502000A0E096E000E0A6E000E0B6E000E0C6E95
:10351200000E0D6E000E0E6E000E0F6E000E106E7F
:10352200B1EC21F001C026F002C027F003C028F060
:1035320004C029F005C02AF006C02BF007C02CF009
:1035420008C02DF026C013F028C014F0EBEC33F0C5
:103552001350300FDF6E3006D8A031063206D8A0E5
:10356200330636C001F037C002F038C003F039C06C
:1035720004F03AC005F03BC006F03CC007F03DC085
:1035820008F00A0E096E000E0A6E000E0B6E000E97
:103592000C6E000E0D6E000E0E6E000E0F6E000E03
:1035A200106E12EC20F001C036F002C037F003C0FA
:1035B20038F004C039F005C03AF006C03BF007C04D
:1035C2003CF008C03DF0E6EF1AF03FBEF1EF1AF012
:1035D2003F5008E13E04D8A0F1EF1AF0F3EF1AF0E1
:1035E2002AEF1BF036503710381039103A103B10C2
:1035F2003C103D10D8A400EF1BF002EF1BF068EF67
:103602001AF031BE0FEF1BF0315006E13004D8B092
:103612000DEF1BF00FEF1BF068EF1AF033BE1AEF3D
:103622001BF0335008E13204D8A01AEF1BF01CEF54
:103632001BF02AEF1BF00001CFB322EF1BF024EFA7
:103642001BF068EF1AF02AEF1BF02AEF1BF02AEFAB
:103652001BF034503510D8A431EF1BF033EF1BF0C0
:103662003DEF1BF00001CFA539EF1BF03BEF1BF044
:103672005FEF1BF03DEF1BF03E06D8A03F06345033
:103682003510D8A447EF1BF049EF1BF04FEF1BF0AA
:10369200000E2F6E2B0E2E6E55EF1BF0000E2F6EAE
:1036A2002D0E2E6E55EF1BF0DB0E3E24D96E020E50
:1036B2003F20DA6E2EC0DFFF5FEF1BF01CC011F05F
:1036C2001DC012F0DB0E3E24136E020E3F20146E5C
:1036D20032C015F033C016F02DEC2BF011C01CF0E7
:1036E20012C01DF075EF1BF0120000017851791124
:1036F200D8A47EEF1BF080EF1BF086EF1BF08990C1
:10370200899289948D9086EF1BF078057911D8A45F
:103712008DEF1BF08FEF1BF095EF1BF089808992E4
:1037220089948D9095EF1BF0020E78197911D8A427
:103732009DEF1BF09FEF1BF0A5EF1BF08990898294
:1037420089948D90A5EF1BF0030E78197911D8A4F6
:10375200ADEF1BF0AFEF1BF0B5EF1BF08980898254
:1037620089948D90B5EF1BF0040E78197911D8A4C5
:10377200BDEF1BF0BFEF1BF0C5EF1BF089908992E4
:1037820089848D90C5EF1BF0050E78197911D8A4A4
:10379200CDEF1BF0CFEF1BF0D5EF1BF089808992A4
:1037A20089848D90D5EF1BF0060E78197911D8A473
:1037B200DDEF1BF0DFEF1BF0E5EF1BF08990898254
:1037C20089848D90E5EF1BF0070E78197911D8A442
:1037D200EDEF1BF0EFEF1BF0F5EF1BF08980898214
:1037E20089848D90F5EF1BF0080E78197911D8A411
:1037F200FDEF1BF0FFEF1BF005EF1CF089908992A3
:1038020089948D8005EF1CF0090E78197911D8A4DE
:103812000DEF1CF00FEF1CF015EF1CF08980899260
:1038220089948D8015EF1CF00A0E78197911D8A4AD
:103832001DEF1CF01FEF1CF025EF1CF08990898210
:1038420089948D8025EF1CF00B0E78197911D8A47C
:103852002DEF1CF02FEF1CF035EF1CF089808982D0
:1038620089948D8035EF1CF00C0E78197911D8A44B
:103872003DEF1CF03FEF1CF045EF1CF08990899260
:1038820089848D8045EF1CF00D0E78197911D8A42A
:103892004DEF1CF04FEF1CF055EF1CF08980899220
:1038A20089848D8055EF1CF00E0E78197911D8A4F9
:1038B2005DEF1CF05FEF1CF065EF1CF089908982D0
:1038C20089848D8065EF1CF00F0E78197911D8A4C8
:1038D2006DEF1CF06FEF1CF075EF1CF08980898290
:1038E20089848D8075EF1CF012000001806F000149
:1038F2008051D8B47FEF1CF081EF1CF0A3EF1CF0D5
:103902007BBF88EF1CF086EF1CF0A3EF1CF078C0A1
:103912007CF079C07DF07AC07EF07BC07FF07C1FA6
:103922007D1F7E1F7F1F7C2B000E7D237E237F2326
:103932007CC082F07DC083F07EC084F07FC085F0C1
:10394200ADEF1CF078C082F079C083F07AC084F0C9
:103952007BC085F0ADEF1CF0785179117A117B11A3
:10396200D8A4B6EF1CF0B8EF1CF0C4EF1CF0000EA8
:10397200786F000E796F000E7A6F000E7B6F65EF25
:103982001DF065EF1DF0960E816FD0EF1CF0812BBC
:10399200D8908533843383338233D0EF1CF0000E0A
:1039A20082157C6F000E83157D6F000E84157E6F6D
:1039B200FE0E85157F6F7C517D117E117F11D8A47B
:1039C200E5EF1CF0E7EF1CF0C8EF1CF0F7EF1CF07E
:1039D200F7EF1CF0812B010E8227000E8323842334
:1039E2008523D8908533843383338233000E821546
:1039F2007C6F000E83157D6F000E84157E6FFF0EA7
:103A020085157F6F7C517D117E117F11D8A40CEF3B
:103A12001DF00EEF1DF0EBEF1CF01AEF1DF01AEF88
:103A22001DF08107D89082378337843785371AEFA4
:103A32001DF084BF1FEF1DF021EF1DF02BEF1DF0D5
:103A4200020E816127EF1DF029EF1DF012EF1DF02C
:103A52002BEF1DF081B130EF1DF032EF1DF035EF8D
:103A62001DF0849F35EF1DF0D890813381C07CF02A
:103A72007D6B7E6B7F6B7CC07FF07E6B7D6B7C6B26
:103A82007C5182137D5183137E5184137F518513A0
:103A92008051D8B44FEF1DF051EF1DF05BEF1DF0D8
:103AA2007BBF58EF1DF056EF1DF05BEF1DF0858FC9
:103AB2005BEF1DF082C078F083C079F084C07AF0A9
:103AC20085C07BF065EF1DF01200B9C0D9FFBAC006
:103AD200DAFFDECFF6FFDDCFF7FF0800F550250A4B
:103AE200D8A476EF1DF078EF1DF030EF1EF0B9C0CC
:103AF200D9FFBAC0DAFFDE2A000EDD22000E010174
:103B0200C16F000EC06FC0C1CFF0C1C1D0F00001C3
:103B1200CD69CE69B9C0D9FFBAC0DAFFDECFF6FFF0
:103B2200DDCFF7FF0800F550640AD8B49BEF1DF013
:103B32009DEF1DF0B1EF1DF0B9C0D9FFBAC0DAFF99
:103B4200DECFF6FFDDCFF7FF0800F550690AD8A4F3
:103B5200ADEF1DF0AFEF1DF0F3EF1DF0B1EF1DF073
:103B6200B9C0D9FFBAC0DAFFDE2A000EDD22BBC01F
:103B7200D9FFBCC0DAFFDFCFBDF0020EDE26DFCFF9
:103B8200BEF0000EDD22BDC0D9FFBEC0DAFFDECF1F
:103B9200BFF0DDCFC0F0000EC0BFFF0EC16FC26F1D
:103BA200C36FC46FC56FC66FB7C093F0B8C094F04F
:103BB200BFC095F0C0C096F0C1C097F0C2C098F0E7
:103BC200C3C099F0C4C09AF0C5C09BF0C6C09CF0B7
:103BD20058EC18F093C0B7F094C0B8F051EF1EF053
:103BE20051EF1EF0B9C0D9FFBAC0DAFFDECFF6FF3F
:103BF200DDCFF7FF0800F550250AD8A403EF1EF029
:103C020005EF1EF020EF1EF0B9C0D9FFBAC0DAFFEF
:103C1200DE2A000EDD22000E0001796F250E786F7C
:103C2200B7C07AF0B8C07BF097EC28F0000E000124
:103C3200B86F010EB76F51EF1EF051EF1EF0B9C011
:103C4200D9FFBAC0DAFFDE2A000EDD22000E000123
:103C5200B86F000EB76F51EF1EF051EF1EF0B9C0F2
:103C6200D9FFBAC0DAFFDECFF6FFDDCFF7FF0800DB
:103C7200F5500001786F796BB7C07AF0B8C07BF06D
:103C820097EC28F0B9C0D9FFBAC0DAFFDE2A000EDD
:103C9200DD22000E0001B86F010EB76F51EF1EF06A
:103CA200120042C0D9FF43C0DAFFDECFF6FFDDCFFC
:103CB200F7FF0800F550250AD8A462EF1EF064EF62
:103CC2001EF019EF1FF042C0D9FF43C0DAFFDE2A0F
:103CD200000EDD22000E0101C16F000EC06FC0C1D7
:103CE200CFF0C1C1D0F00001CD69CE6942C0D9FF89
:103CF20043C0DAFFDECFF6FFDDCFF7FF0800F55055
:103D0200640AD8B487EF1EF089EF1EF09DEF1EF013
:103D120042C0D9FF43C0DAFFDECFF6FFDDCFF7FFA7
:103D22000800F550690AD8A499EF1EF09BEF1EF027
:103D3200DFEF1EF09DEF1EF042C0D9FF43C0DAFF55
:103D4200DE2A000EDD2244C0D9FF45C0DAFFDFCFF4
:103D520046F0020EDE26DFCF47F0000EDD2246C01F
:103D6200D9FF47C0DAFFDECF48F0DDCF49F0000EC1
:103D720049BEFF0E4A6E4B6E4C6E4D6E4E6E4F6ECE
:103D820040C01CF041C01DF048C01EF049C01FF0E9
:103D92004AC020F04BC021F04CC022F04DC023F0AD
:103DA2004EC024F04FC025F0E7EC19F01CC040F0E3
:103DB2001DC041F038EF1FF038EF1FF042C0D9FFAD
:103DC20043C0DAFFDECFF6FFDDCFF7FF0800F55084
:103DD200250AD8A4EFEF1EF0F1EF1EF00AEF1FF054
:103DE20042C0D9FF43C0DAFFDE2A000EDD22000EF8
:103DF200026E250E016E40C003F041C004F008ECD3
:103E020029F0000E416E010E406E38EF1FF038EFC0
:103E12001FF042C0D9FF43C0DAFFDE2A000EDD22C6
:103E2200000E416E000E406E38EF1FF038EF1FF0AB
:103E320042C0D9FF43C0DAFFDECFF6FFDDCFF7FF86
:103E42000800F550016E026A40C003F041C004F060
:103E520008EC29F042C0D9FF43C0DAFFDE2A000E87
:103E6200DD22000E416E010E406E38EF1FF012008F
:103E7200000E0001896F87BF43EF1FF041EF1FF073
:103E820057EF1FF0871F861F851F841F831F821F06
:103E9200811F806D000E8123822383238423852347
:103EA20086238723010E896F57EF1FF07FBF5EEFD6
:103EB2001FF05CEF1FF072EF1FF07F1F7E1F7D1F50
:103EC2007C1F7B1F7A1F791F786D000E79237A235E
:103ED2007B237C237D237E237F23010E891B72EFAC
:103EE2001FF020EE8AF0070EDE6AE806FDE280513E
:103EF2008111821183118411851186118711D8B421
:103F020085EF1FF087EF1FF0E5EF1FF0010E886FBE
:103F120097EF1FF0D8908037813782378337843705
:103F2200853786378737882B97EF1FF087AF9CEF4F
:103F32001FF09EEF1FF08BEF1FF0A2EF1FF0A2EF1A
:103F42001FF0D8908A378B378C378D378E378F3763
:103F5200903791378051785D8151795982517A59E0
:103F620083517B5984517C5985517D5986517E59A3
:103F720087517F59D8A0C0EF1FF0C2EF1FF0D5EFD5
:103F82001FF08051785F8151795B82517A5B835156
:103F92007B5B84517C5B85517D5B86517E5B875167
:103FA2007F5B8A81D5EF1FF0D890873386338533C4
:103FB20084338333823381338033882FA2EF1FF01F
:103FC200E5EF1FF0E5EF1FF08951D8B4EBEF1FF0DA
:103FD200EDEF1FF0FFEF1FF0911F901F8F1F8E1F3D
:103FE2008D1F8C1F8B1F8A6D000E8B238C238D23BC
:103FF2008E238F2390239123FFEF1FF08AC078F046
:104002008BC079F08CC07AF08DC07BF08EC07CF0D2
:104012008FC07DF090C07EF091C07FF011EF20F054
:104022001200000E126E10BE1BEF20F019EF20F0EE
:104032002FEF20F0101E0F1E0E1E0D1E0C1E0B1E4B
:104042000A1E096C000E0A220B220C220D220E22DD
:104052000F221022010E126E2FEF20F008BE36EF53
:1040620020F034EF20F04AEF20F0081E071E061E53
:10407200051E041E031E021E016C000E02220322F4
:1040820004220522062207220822010E121A4AEFF2
:1040920020F020EE13F0070EDE6AE806FDE209507A
:1040A2000A100B100C100D100E100F101010D8B4B7
:1040B2005DEF20F05FEF20F0BDEF20F0010E116EFA
:1040C2006FEF20F0D89009360A360B360C360D36D3
:1040D2000E360F361036112A6FEF20F010AE74EF45
:1040E20020F076EF20F063EF20F07AEF20F07AEF05
:1040F20020F0D89013361436153616361736183681
:1041020019361A360950015C0A5002580B500358EE
:104112000C5004580D5005580E5006580F500758B1
:1041220010500858D8A098EF20F09AEF20F0ADEF89
:1041320020F00950015E0A50025A0B50035A0C50EB
:10414200045A0D50055A0E50065A0F50075A105075
:10415200085A1380ADEF20F0D89010320F320E3291
:104162000D320C320B320A320932112E7AEF20F064
:10417200BDEF20F0BDEF20F01250D8B4C3EF20F015
:10418200C5EF20F0D7EF20F01A1E191E181E171EB9
:10419200161E151E141E136C000E14221522162252
:1041A2001722182219221A22D7EF20F013C001F089
:1041B20014C002F015C003F016C004F017C005F0D9
:1041C20018C006F019C007F01AC008F0E9EF20F095
:1041D2001200000E0001896F7FBFF4EF20F0F2EFB2
:1041E20020F008EF21F07F1F7E1F7D1F7C1F7B1FA9
:1041F2007A1F791F786D000E79237A237B237C2323
:104202007D237E237F23010E896F08EF21F087BF74
:104212000FEF21F00DEF21F021EF21F0871F861F14
:10422200851F841F831F821F811F806D000E8123C3
:1042320082238323842385238623872321EF21F06E
:104242008051811182118311841185118611871188
:10425200D8B42EEF21F030EF21F084EF21F0010EDF
:10426200886F40EF21F0D8908037813782378337CB
:104272008437853786378737882B40EF21F087AF21
:1042820045EF21F047EF21F034EF21F04BEF21F021
:104292004BEF21F08051785D8151795982517A59E1
:1042A20083517B5984517C5985517D5986517E5960
:1042B20087517F59D8A060EF21F062EF21F074EFAF
:1042C20021F08051785F8151795B82517A5B835111
:1042D2007B5B84517C5B85517D5B86517E5B875124
:1042E2007F5B74EF21F0D890873386338533843334
:1042F2008333823381338033882F4BEF21F084EF75
:1043020021F084EF21F08951D8B48AEF21F08CEFAB
:1043120021F09EEF21F07F1F7E1F7D1F7C1F7B1FE0
:104322007A1F791F786D000E79237A237B237C23F1
:104332007D237E237F239EEF21F078C078F079C021
:1043420079F07AC07AF07BC07BF07CC07CF07DC0D3
:104352007DF07EC07EF07FC07FF0B0EF21F01200D2
:10436200000E126E08BEBAEF21F0B8EF21F0CEEFC8
:1043720021F0081E071E061E051E041E031E021E35
:10438200016C000E022203220422052206220722C9
:104392000822010E126ECEEF21F010BED5EF21F0F1
:1043A200D3EF21F0E7EF21F0101E0F1E0E1E0D1E9F
:1043B2000C1E0B1E0A1E096C000E0A220B220C2276
:1043C2000D220E220F221022E7EF21F009500A10CF
:1043D2000B100C100D100E100F101010D8B4F4EFBB
:1043E20021F0F6EF21F04AEF22F0010E116E06EFF6
:1043F20022F0D89009360A360B360C360D360E36B8
:104402000F361036112A06EF22F010AE0BEF22F013
:104412000DEF22F0FAEF21F011EF22F011EF22F06E
:104422000950015C0A5002580B5003580C500458B2
:104432000D5005580E5006580F5007581050085886
:10444200D8A026EF22F028EF22F03AEF22F009500E
:10445200015E0A50025A0B50035A0C50045A0D5076
:10446200055A0E50065A0F50075A1050085A3AEF82
:1044720022F0D89010320F320E320D320C320B3243
:104482000A320932112E11EF22F04AEF22F04AEFDE
:1044920022F01250D8B450EF22F052EF22F064EF23
:1044A20022F0081E071E061E051E041E031E021E03
:1044B200016C000E02220322042205220622072298
:1044C200082264EF22F001C001F002C002F003C032
:1044D20003F004C004F005C005F006C006F007C0F2
:1044E20007F008C008F076EF22F01200CECF8AF073
:1044F200CFCF8BF0030E00018A15886F000E8B154B
:10450200896F88C078F089C079F0000E79BFFF0EFC
:104512007A6F7B6F010E76EC1CF078C08EF079C05A
:104522008FF07AC090F07BC091F0000E00018D6F89
:10453200000E8C6F8EC078F08FC079F090C07AF048
:1045420091C07BF0000E7C6F000E7D6F000E7E6FBF
:10455200000E7F6FFFEC2BF00001D8A0B3EF22F02A
:10456200B5EF22F0BFEF22F0000E8D6F010E8C6FBF
:10457200000ED86F000ED76FBFEF22F08EC078F01A
:104582008FC079F090C07AF091C07BF0000E7C6F02
:10459200000E7D6F800E7E6F3F0E7F6FFFEC2BF063
:1045A2000001D8A0D7EF22F0D9EF22F0E3EF22F0FA
:1045B200000E8D6F020E8C6F000ED86F070ED76F34
:1045C200E3EF22F08EC078F08FC079F090C07AF0DD
:1045D20091C07BF0000E7C6F000E7D6F000E7E6F2F
:1045E200400E7F6FFFEC2BF00001D8A0FBEF22F012
:1045F200FDEF22F007EF23F0000E8D6F030E8C6F9C
:10460200000ED86F0B0ED76F07EF23F08EC078F035
:104612008FC079F090C07AF091C07BF0000E7C6F71
:10462200000E7D6F400E7E6F400E7F6FFFEC2BF011
:104632000001D8A01FEF23F021EF23F02BEF23F08E
:10464200000E8D6F040E8C6F000ED86F0F0ED76F99
:104652002BEF23F08CC086F08DC087F031EF23F072
:104662001200000E00019F15A76F000EA015A86F83
:10467200800EA115A96F7F0EA215AA6FA751A811CE
:10468200A911AA11D8A448EF23F04AEF23F054EF5E
:1046920023F0000E9F6F000EA06F000EA16F000EA0
:1046A200A26F54EF23F0000EA315A76F000EA415FE
:1046B200A86F800EA515A96F7F0EA615AA6FA75128
:1046C200A811A911AA11D8A469EF23F06BEF23F066
:1046D20075EF23F0000EA36F000EA46F000EA56FFE
:1046E200000EA66F75EF23F0A2AF7AEF23F07CEFF6
:1046F20023F09BEF23F09FC0A7F0A0C0A8F0A1C0B9
:10470200A9F0A2C0AAF0A71FA81FA91FAA1FA72B22
:10471200000EA823A923AA23000EA7259F6F000E2F
:10472200A821A06F000EA921A16F800EAA21A26F5D
:104732009BEF23F0A6AFA0EF23F0A2EF23F0BFEF91
:1047420023F0A3C0A7F0A4C0A8F0A5C0A9F0A6C0FA
:10475200AAF0A71FA81FA91FAA1FA72B000EA823F4
:10476200A923AA23000EA725A36F000EA821A46FD8
:10477200000EA921A56F800EAA21A66F000E9F1B15
:10478200000EA01B000EA11B800EA21B000EA31B7D
:10479200000EA41B000EA51B800EA61BA3519F5D3D
:1047A200A451A059A551A159A651A259D8B0DCEFE4
:1047B20023F0DEEF23F0E1EF23F0D890E6EF23F0D1
:1047C200D880E6EF23F0E6EF23F0120000017A35FD
:1047D2007B35816F8151D8A4F1EF23F0F3EF23F001
:1047E200FFEF23F0000E786F000E796F000E7A6FE4
:1047F200000E7B6F90EF24F090EF24F078C07CF0F5
:1048020079C07DF07AC07EF07BC07FF0200E0FEF82
:1048120024F0D8907F337E337D337C33E82E0AEF49
:1048220024F07C51806F7A8FFF0E7817FF0E791774
:10483200FF0E7A17000E7B17960E815F81BF26EF5F
:1048420024F024EF24F04AEF24F08151800A970FDC
:10485200D8B02EEF24F030EF24F03EEF24F0000E1B
:10486200786F000E796F000E7A6F000E7B6F90EFFB
:1048720024F090EF24F03EEF24F0D8907B337A338B
:1048820079337833813F3EEF24F074EF24F074EFF4
:1048920024F01F0E816550EF24F052EF24F068EFF0
:1048A20024F0000E786F000E796F000E7A6F000E02
:1048B2007B6F90EF24F090EF24F068EF24F0D89013
:1048C200783779377A377B37810768EF24F081515F
:1048D200D8A46EEF24F070EF24F060EF24F074EFB0
:1048E20024F074EF24F08051D8B47AEF24F07CEFF6
:1048F20024F086EF24F07B1F7A1F791F786D000E5B
:1049020079237A237B2386EF24F078C078F079C06C
:1049120079F07AC07AF07BC07BF090EF24F012003D
:10492200000E8C6E000E956E8A9A8A988A968A9AE2
:104932008A988A96EA0E0001796FC30EE82EFED796
:10494200792FFCD7300E2CEC34F0410E0001796F38
:10495200EF0EE82EFED7792FFCD700D0300E2CECCC
:1049620034F00D0E0001796FFA0EE82EFED7792F82
:10497200FCD700F0300E2CEC34F0C2EF24F0C2EF82
:1049820024F00DEC34F00009D8A4CAEF24F0CCEFE7
:1049920024F0C2EF24F0CEEF24F0380E2CEC34F0E9
:1049A200D5EF24F0D5EF24F00DEC34F00009D8A4B3
:1049B200DDEF24F0DFEF24F0D5EF24F0E1EF24F077
:1049C200080E2CEC34F0E8EF24F0E8EF24F00DECC4
:1049D20034F00009D8A4F0EF24F0F2EF24F0E8EF6D
:1049E20024F0F4EF24F00F0E2CEC34F0FBEF24F063
:1049F200FBEF24F00DEC34F00009D8A403EF25F00E
:104A020005EF25F0FBEF24F007EF25F0010E2CEC6B
:104A120034F00EEF25F00EEF25F00DEC34F0000926
:104A2200D8A416EF25F018EF25F00EEF25F01AEFB7
:104A320025F0020E2CEC34F021EF25F021EF25F0C9
:104A42000DEC34F00009D8A429EF25F02BEF25F066
:104A520021EF25F02DEF25F0120022EE10F011EEDD
:104A62009DF00F0EDBCFE3FFE806FCE223EE2AF017
:104A720011EE00F0290EDBCFE3FFE806FCE222EEA6
:104A8200A2F011EE94F0080EDBCFE3FFE806FCE2A1
:104A9200F6C1ADF1F7C1AEF1F8C1AFF126EE3BF0D0
:104AA20011EE2AF03A0EDBCFE3FFE806FCE224EE39
:104AB2002FF011EE65F02E0EDBCFE3FFE806FCE2ED
:104AC2009D0E0001796F010E7A6F09EC32F07A0EB9
:104AD20000017F6FC10E7E6F810EE82EFED77E2F02
:104AE200FCD77F2FFAD700D02A0E0001796F010E72
:104AF2007A6F09EC32F0D90E0001796F000E7A6FED
:104B020009EC32F0AD0E0001796F010E7A6F09ECFB
:104B120032F07A0E00017F6FC10E7E6F810EE82E99
:104B2200FED77E2FFCD77F2FFAD700D07A0E000156
:104B32007F6FC10E7E6F810EE82EFED77E2FFCD7CF
:104B42007F2FFAD700D07A0E00017F6FC10E7E6FE1
:104B5200810EE82EFED77E2FFCD77F2FFAD700D00A
:104B62007A0E00017F6FC10E7E6F810EE82EFED796
:104B72007E2FFCD77F2FFAD700D0650E0001796F08
:104B8200010E7A6F09EC32F0120022EE00F011EE03
:104B92009AF00F0EDBCFE3FFE806FCE223EE00F013
:104BA20011EE00F0290EDBCFE3FFE806FCE222EE75
:104BB20099F011EE91F0080EDBCFE3FFE806FCE27C
:104BC200F3C1AAF1F4C1ABF1F5C1ACF125EE38F0B5
:104BD20011EE2AF0370EDBCFE3FFE806FCE224EE0B
:104BE20000F011EE62F02E0EDBCFE3FFE806FCE2EE
:104BF2009A0E0001796F010E7A6F09EC32F07A0E8B
:104C020000017F6FC10E7E6F810EE82EFED77E2FD0
:104C1200FCD77F2FFAD700D02A0E0001796F010E40
:104C22007A6F09EC32F0D90E0001796F000E7A6FBB
:104C320009EC32F0AA0E0001796F010E7A6F09ECCD
:104C420032F07A0E00017F6FC10E7E6F810EE82E68
:104C5200FED77E2FFCD77F2FFAD700D07A0E000125
:104C62007F6FC10E7E6F810EE82EFED77E2FFCD79E
:104C72007F2FFAD700D07A0E00017F6FC10E7E6FB0
:104C8200810EE82EFED77E2FFCD77F2FFAD700D0D9
:104C92007A0E00017F6FC10E7E6F810EE82EFED765
:104CA2007E2FFCD77F2FFAD700D0620E0001796FDA
:104CB200010E7A6F09EC32F0120023EEB9F011EE18
:104CC2009CF00F0EDBCFE3FFE806FCE224EE88F057
:104CD20011EE00F0290EDBCFE3FFE806FCE222EE44
:104CE20087F011EE93F0080EDBCFE3FFE806FCE25B
:104CF200EDC1ACF1EEC1ADF1EFC1AEF126EE76F051
:104D020011EE2AF0390EDBCFE3FFE806FCE225EED6
:104D120070F011EE64F02E0EDBCFE3FFE806FCE24A
:104D22009C0E0001796F010E7A6F09EC32F07A0E57
:104D320000017F6FC10E7E6F810EE82EFED77E2F9F
:104D4200FCD77F2FFAD700D02A0E0001796F010E0F
:104D52007A6F09EC32F0D90E0001796F000E7A6F8A
:104D620009EC32F0AC0E0001796F010E7A6F09EC9A
:104D720032F07A0E00017F6FC10E7E6F810EE82E37
:104D8200FED77E2FFCD77F2FFAD700D07A0E0001F4
:104D92007F6FC10E7E6F810EE82EFED77E2FFCD76D
:104DA2007F2FFAD700D07A0E00017F6FC10E7E6F7F
:104DB200810EE82EFED77E2FFCD77F2FFAD700D0A8
:104DC2007A0E00017F6FC10E7E6F810EE82EFED734
:104DD2007E2FFCD77F2FFAD700D0640E0001796FA7
:104DE200010E7A6F09EC32F0120023EEC9F011EED7
:104DF2009DF00F0EDBCFE3FFE806FCE224EEB2F0FB
:104E020011EE00F0290EDBCFE3FFE806FCE222EE12
:104E120090F011EE94F0080EDBCFE3FFE806FCE21F
:104E2200F0C1ADF1F1C1AEF1F2C1AFF126EE00F089
:104E320011EE2AF03A0EDBCFE3FFE806FCE225EEA4
:104E42009FF011EE65F02E0EDBCFE3FFE806FCE2E9
:104E52009D0E0001796F010E7A6F09EC32F07A0E25
:104E620000017F6FC10E7E6F810EE82EFED77E2F6E
:104E7200FCD77F2FFAD700D02A0E0001796F010EDE
:104E82007A6F09EC32F0D90E0001796F000E7A6F59
:104E920009EC32F0AD0E0001796F010E7A6F09EC68
:104EA20032F07A0E00017F6FC10E7E6F810EE82E06
:104EB200FED77E2FFCD77F2FFAD700D07A0E0001C3
:104EC2007F6FC10E7E6F810EE82EFED77E2FFCD73C
:104ED2007F2FFAD700D07A0E00017F6FC10E7E6F4E
:104EE200810EE82EFED77E2FFCD77F2FFAD700D077
:104EF2007A0E00017F6FC10E7E6F810EE82EFED703
:104F02007E2FFCD77F2FFAD700D0650E0001796F74
:104F1200010E7A6F09EC32F01200BA0EF66E580EDC
:104F2200F76E000EF86E06EE00F010EEB0F009001B
:104F3200F5CFEEFFE550E150FAE1300EF66E570E76
:104F4200F76E000EF86E05EE00F010EECEF00900DE
:104F5200F5CFEEFFE550E150FAE1EE0EF66E520E9D
:104F6200F76E000EF86E04EE00F010EEDCF00900B1
:104F7200F5CFEEFFE550E150FAE1800EF66E550EE8
:104F8200F76E000EF86E03EE00F010EED9F0090095
:104F9200F5CFEEFFE550E150FAE1CA0EF66E530E80
:104FA200F76E000EF86E02EE00F010EEDBF0090074
:104FB200F5CFEEFFE550E150FAE1BA0EF66E690E5A
:104FC200F76E000EF86E01EEE4F010EE1AF0090032
:104FD200F5CFEEFFE550E150FAE1E40EF66E690E10
:104FE200F76E000EF86E00EEDFF010EE08F009002A
:104FF200F5CFEEFFE550E150FAE103EED9F0140EE1
:10500200EE6AE806FDE102EEDBF0200EEE6AE8064B
:10501200FDE101EEBEF0260EEE6AE806FDE100EECD
:10502200CDF0120EEE6AE806FDE15E905E92000E91
:10503200F86E000109EF04F0000E0101DF6F000EAF
:10504200DE6FABC078F0ACC079F000017A6B7B6B9D
:10505200000E76EC1CF078C086F079C087F07AC03A
:1050620088F07BC089F06F0E00018A6F120E8B6F81
:10507200830E8C6F3A0E8D6FE9EC13F086C0ADF0A3
:1050820087C0AEF088C0AFF089C0B0F05AEF28F008
:105092004BEF28F0F2A450EF28F052EF28F04BEF3C
:1050A20028F0F2940101DE4BDF2B060ED66E5AEF8A
:1050B20028F0DEC178F0DFC179F00001000E79BF7F
:1050C200FF0E7A6F7B6F010E76EC1CF078C09FF0BA
:1050D20079C0A0F07AC0A1F07BC0A2F0000E00015E
:1050E2008A6F800E8B6FBB0E8C6F430E8D6FADC0BF
:1050F20086F0AEC087F0AFC088F0B0C089F0E9ECAE
:1051020013F086C0A3F087C0A4F088C0A5F089C0C0
:10511200A6F032EC23F00001D8A092EF28F094EF31
:1051220028F04BEF28F096EF28F0120000017A5198
:105132007B11D8B49FEF28F0A1EF28F0ACEF28F054
:105142007A517B11D8A4A8EF28F0AAEF28F0B1EF8A
:1051520028F0ACEF28F07851F6EC34F007EF29F0A4
:10516200000120EE04F07A51D9267B51DA22DE507A
:10517200DE10D8B4BFEF28F0C1EF28F0DEEF28F040
:1051820020EE04F07A51D9267B51DA2210EE02F099
:105192007A51E1267B51E222DE50E65CE650800A3B
:1051A200806FDE50800A8059D8B0DAEF28F0DCEF49
:1051B20028F007EF29F0DEEF28F020EE02F07A5116
:1051C200D9267B51DA22DECF7CF0DDCF7DF07AC0AA
:1051D200D9FF7BC0DAFFDECF7EF0DDCF7FF07C51DE
:1051E2007E25D96E7D517F21DA6E78C0DFFF20EEF9
:1051F20002F07A51D9267B51DA22DE2A000EDD2214
:1052020007EF29F007EF29F007EF29F0120003500A
:105212000410D8B40FEF29F011EF29F01CEF29F098
:1052220003500410D8A418EF29F01AEF29F021EF47
:1052320029F01CEF29F00150F7EC34F076EF29F059
:1052420020EE04F00350D9260450DA22DE50DE109C
:10525200D8B42EEF29F030EF29F04DEF29F020EEEF
:1052620004F00350D9260450DA2210EE02F0035063
:10527200E1260450E222DE50E65CE650800A096E26
:10528200DE50800A0958D8B049EF29F04BEF29F0D7
:1052920076EF29F04DEF29F020EE02F00350D926E7
:1052A2000450DA22DECF05F0DDCF06F003C0D9FFCD
:1052B20004C0DAFFDECF07F0DDCF08F00550072487
:1052C200D96E06500820DA6E01C0DFFF20EE02F030
:1052D2000350D9260450DA22DE2A000EDD2276EFB0
:1052E20029F076EF29F076EF29F012004854545055
:1052F2002F312E31486F73743A6C6F63616C686F33
:10530200737443616368652D436F6E74726F6C3A98
:105312006E6F2D63616368650D0A00485454502F07
:10532200312E31486F73743A6C6F63616C686F73BE
:105332007443616368652D436F6E74726F6C3A6E6D
:105342006F2D63616368650D0A00474554202F7510
:105352007064617465466F746F7265736973746F9C
:10536200722E7068703F666F746F726573697374C2
:105372006F723D00474554202F706F776572626FE0
:105382006F73742F6765745661726961626C6573BD
:105392002E7068703F6A756761646F723D004745A1
:1053A20054202F706F776572626F6F73742F676509
:1053B200745661726961626C65732E7068703F6ABF
:1053C200756761646F723D0041542B4349505345E8
:1053D2004E443D37300D0A0041542B43495053454A
:1053E2004E443D37300D0A0041542B4349504D4F36
:1053F20044453D300D0A006950686F6E6520646552
:10540200204C7569730041542B4349504D55583D0A
:10541200300D0A0041542B43574D4F44453D310D49
:105422000A0041542B43495053544152543D0031D8
:1054320037322E32302E31302E370041542B435723
:105442004A41503D0056656C3A20543A20200026CD
:105452007469656D706F3D00267469656D706F3D8E
:1054620000267469656D706F3D00267469656D7004
:105472006F3D006C756967793132330057656C6333
:105482006F6D65210054494D453A200054494D4500
:105492003A0054494D453A0054494D453A00415469
:0354A2000D0A00F0
:1054A6000001CFA159EF2AF05BEF2AF067EF2AF04F
:1054B6008AC081F08BC082F088C083F089C084F0F6
:1054C60053EC33F067EF2AF000018DBF6DEF2AF041
:1054D6006FEF2AF075EF2AF08CC091F08DC092F034
:1054E60079EF2AF0000E926F000E916F000E906F0A
:1054F600000E8F6F8EEF2AF0000E796F200E786FF8
:1055060088C07AF089C07BF097EC28F000018F4BB9
:10551600902B8EEF2AF091518F5D9051800A8E6FFD
:105526009251800A8E59D8A09BEF2AF09DEF2AF05F
:105536007FEF2AF0CFB1A2EF2AF0A4EF2AF0B0EF66
:105546002AF08AC081F08BC082F088C083F089C0BF
:1055560084F053EC33F0B0EF2AF08AC078F08BC0B9
:1055660079F0FFEC32F0000191517825886F925165
:105576007921896FBFEF2AF01200474554202F701A
:105586006F776572626F6F73742F67657456617299
:105596006961626C65732E7068703F6A75676164D5
:1055A6006F723D00474554202F706F776572626FAA
:1055B6006F73742F6765745661726961626C657387
:1055C6002E7068703F6A756761646F723D00503176
:1055D6003A2050323A2050333A2050343A20004391
:1055E60061726C6F73204D20776F6E21212121002F
:1055F60041647269616E61205320776F6E212121AB
:105606000057696C6C69616D204220776F6E2121AD
:1056160021004C756973204F6C69766120776F6E37
:1056260021210041542B43495053454E443D3937BF
:105636000D0A0041542B43495053454E443D3730E3
:105646000D0A0041542B43495053454E443D3730D3
:035656000D0A003A
:10565A000001CFA133EF2BF035EF2BF041EF2BF008
:10566A0013C00AF014C00BF011C00CF012C00DF0F8
:10567A00A2EC33F041EF2BF016BE46EF2BF048EFC9
:10568A002BF04EEF2BF015C01AF016C01BF052EF9C
:10569A002BF0000E1B6E000E1A6E000E196E000E15
:1056AA00186E66EF2BF0000E026E200E016E11C00E
:1056BA0003F012C004F008EC29F0184A192A66EF20
:1056CA002BF01A50185C1950800A176E1B50800A6A
:1056DA001758D8A073EF2BF075EF2BF058EF2BF07B
:1056EA000001CFB17BEF2BF07DEF2BF089EF2BF090
:1056FA0013C00AF014C00BF011C00CF012C00DF068
:10570A00A2EC33F089EF2BF013C001F014C002F0C1
:10571A002AEC33F01A500124116E1B500220126E2B
:10572A0097EF2BF0120020485454502F312E310D90
:10573A000A486F73743A206C6F63616C686F737494
:10574A000D0A43616368652D436F6E74726F6C3A1C
:10575A00206E6F2D63616368650D0A0D0A00474567
:10576A0054202F706F776572626F6F73742F67653D
:10577A00745661726961626C65732E7068703F6AF3
:10578A00756761646F723D276C7569732726746942
:10579A00656D706F3D00485454502F312E31486F5B
:1057AA0073743A6C6F63616C686F73744361636896
:1057BA00652D436F6E74726F6C3A6E6F2D63616301
:1057CA0068650D0A00485454502F312E31486F73C2
:1057DA00743A6C6F63616C686F7374436163686574
:1057EA002D436F6E74726F6C3A6E6F2D63616368CE
:1057FA00650D0A00000E00017815806F000E7915FC
:10580A00816F800E7A15826F7F0E7B15836F8051B0
:10581A00811182118311D8A415EF2CF017EF2CF007
:10582A0021EF2CF0000E786F000E796F000E7A6F60
:10583A00000E7B6F21EF2CF0000E7C15806F000E9E
:10584A007D15816F800E7E15826F7F0E7F15836FA7
:10585A008051811182118311D8A436EF2CF038EFD0
:10586A002CF042EF2CF0000E7C6F000E7D6F000EC4
:10587A007E6F000E7F6F42EF2CF07C5178190FE19A
:10588A007D5179190CE17E517A1909E17F517B1911
:10589A00D8B452EF2CF054EF2CF057EF2CF0D890EC
:1058AA005CEF2CF0D8805CEF2CF05CEF2CF012004F
:1058BA00474554202F706F776572626F6F73742F2C
:1058CA006765745661726961626C65732E7068707F
:1058DA003F6A756761646F723D2761647269616EC0
:1058EA006127267469656D706F3D00474554202F06
:1058FA00706F776572626F6F73742F676574566124
:10590A00726961626C65732E7068703F6A7567614F
:10591A00646F723D2777696C6C69616D27267469BB
:10592A00656D706F3D00474554202F706F77657223
:10593A00626F6F73742F6765745661726961626C06
:10594A0065732E7068703F6A756761646F723D2770
:10595A006361726C6F7327267469656D706F3D00A1
:10596A00E9C19CF0EAC19DF0EBC19EF0ECC19FF049
:10597A0022EE67F010EE8BF00B0EDBCFE3FFE806AA
:10598A00FCE222EE5AF010EE7EF00C0EDBCFE3FFC3
:10599A00E806FCE221EEE4F010EE97F0040EDBCF0D
:1059AA00E3FFE806FCE27E0E0001796F000E7A6FD3
:1059BA0009EC32F0220EBEEC34F09C0E0001796F35
:1059CA00000E7A6F09EC32F0220EBEEC34F02C0E87
:1059DA00BEEC34F0220EBEEC34F08B0E0001796F6F
:1059EA00000E7A6F09EC32F0220EBEEC34F02C0E67
:1059FA00BEEC34F0970E0001796F000E7A6F09EC55
:105A0A0032F01200A00EE82EFED7800E2CEC34F0F5
:105A1A00000E0101136F000E126F13BF1EEF2DF05F
:105A2A00135109E10F0E125DD8A01EEF2DF020EFE1
:105A3A002DF024EF2DF03DEF2DF03DEF2DF0A00ECF
:105A4A00E82EFED7140E2CEC34F00101124B132B66
:105A5A0013BF39EF2DF0135109E10F0E125DD8A0D3
:105A6A0039EF2DF03BEF2DF024EF2DF03DEF2DF027
:105A7A00DB0E026F000E036F0D0E046F080E056F2A
:105A8A00D0C106F1D1C107F1A0EC32F0A00EE82E88
:105A9A00FED7DB0E0001796F000E7A6FE1EC2EF073
:105AAA001200A00EE82EFED7800E2CEC34F0000E69
:105ABA000101136F000E126F13BF6DEF2DF013511A
:105ACA0009E10B0E125DD8A06DEF2DF06FEF2DF0EE
:105ADA0073EF2DF08CEF2DF08CEF2DF0A00EE82E49
:105AEA00FED7140E2CEC34F00101124B132B13BF0A
:105AFA0088EF2DF0135109E10B0E125DD8A088EF43
:105B0A002DF08AEF2DF073EF2DF08CEF2DF0DC0ED7
:105B1A00026F000E036F0D0E046F080E056FD2C1DF
:105B2A0006F1D3C107F1A0EC32F0A00EE82EFED7A1
:105B3A00DC0E0001796F000E7A6FE1EC2EF0120094
:105B4A00A00EE82EFED7800E2CEC34F0000E0101D8
:105B5A00136F000E126F13BFBCEF2DF0135109E142
:105B6A00070E125DD8A0BCEF2DF0BEEF2DF0C2EFEC
:105B7A002DF0DBEF2DF0DBEF2DF0A00EE82EFED797
:105B8A00140E2CEC34F00101124B132B13BFD7EF78
:105B9A002DF0135109E1070E125DD8A0D7EF2DF0B1
:105BAA00D9EF2DF0C2EF2DF0DBEF2DF0DD0E026FF5
:105BBA00000E036F0D0E046F080E056FD4C106F1B7
:105BCA00D5C107F1A0EC32F0A00EE82EFED7DD0E0B
:105BDA000001796F000E7A6FE1EC2EF01200A00E30
:105BEA00E82EFED7800E2CEC34F0000E0101136F64
:105BFA00000E126F13BF0BEF2EF0135109E1030EC3
:105C0A00125DD8A00BEF2EF00DEF2EF011EF2EF053
:105C1A002AEF2EF02AEF2EF0A00EE82EFED7140E51
:105C2A002CEC34F00101124B132B13BF26EF2EF08C
:105C3A00135109E1030E125DD8A026EF2EF028EFCA
:105C4A002EF011EF2EF02AEF2EF0DE0E026F000E6C
:105C5A00036F0D0E046F080E056FD3C006F1D4C092
:105C6A0007F1A0EC32F0A00EE82EFED7DE0E0001FE
:105C7A00796F000E7A6FE1EC2EF01200A00EE82E7A
:105C8A00FED7C00E2CEC34F0000E0101136F000E8B
:105C9A00126F13BF5AEF2EF0135109E1070E125D6E
:105CAA00D8A05AEF2EF05CEF2EF060EF2EF079EFCD
:105CBA002EF079EF2EF0A00EE82EFED7140E2CEC63
:105CCA0034F00101124B132B13BF75EF2EF0135151
:105CDA0009E1070E125DD8A075EF2EF077EF2EF0CE
:105CEA0060EF2EF079EF2EF0D90E026F000E036FDF
:105CFA000D0E046F080E056FC6C106F1C7C107F184
:105D0A00A0EC32F0A00EE82EFED7D90E0001796F72
:105D1A00000E7A6FE1EC2EF01200A00EE82EFED7EC
:105D2A00C00E2CEC34F0000E0101136F000E126F3E
:105D3A0013BFA9EF2EF0135109E1040E125DD8A08A
:105D4A00A9EF2EF0ABEF2EF0AFEF2EF0C8EF2EF04A
:105D5A00C8EF2EF0A00EE82EFED7140E2CEC34F06D
:105D6A000101124B132B13BFC4EF2EF0135109E19B
:105D7A00040E125DD8A0C4EF2EF0C6EF2EF0AFEFDE
:105D8A002EF0C8EF2EF0DA0E026F000E036F0D0E22
:105D9A00046F080E056FE3C006F1E4C007F1A0EC3A
:105DAA0032F0A00EE82EFED7DA0E0001796F000E4F
:105DBA007A6FE1EC2EF01200000E00017E6F000EE9
:105DCA007D6F0FEF2FF02F0E00017B6FBF0EE82EB5
:105DDA00FED77B2FFCD700D000017D5179257B6F40
:105DEA007E517A217C6F7BC0F6FF7CC0F7FFF86A90
:105DFA00070EF76403D00800F55005D0F6CFE1FF8F
:105E0A00F7CFE2FFE75055EC34F000017D4B7E2BD3
:105E1A000FEF2FF07D5179257B6F7E517A217C6FB0
:105E2A007BC0F6FF7CC0F7FFF86A070EF76403D061
:105E3A000800F55005D0F6CFE1FFF7CFE2FFE750B3
:105E4A000009D8A42BEF2FF02DEF2FF0E8EF2EF05A
:105E5A002FEF2FF01200A00EE82EFED7C00E41EC55
:105E6A0034F0000E00016B6F000E6A6F6BBF47EFD4
:105E7A002FF06B5109E1040E6A5DD8A047EF2FF0AD
:105E8A0049EF2FF04DEF2FF066EF2FF066EF2FF06E
:105E9A00A00EE82EFED7140E41EC34F000016A4B36
:105EAA006B2B6BBF62EF2FF06B5109E1040E6A5D39
:105EBA00D8A062EF2FF064EF2FF04DEF2FF066EFCE
:105ECA002FF0DA0E586E000E596E0D0E5A6E080E2D
:105EDA005B6EE3C05CF0E4C05DF0D0EC32F0A00E83
:105EEA00E82EFED7DA0E026E000E036E7EEC2FF05D
:105EFA001200000E076E000E066EA7EF2FF02F0E8F
:105F0A00046EC00EE82EFED7042EFCD706500224DB
:105F1A00046E07500320056E04C0F6FF05C0F7FFA4
:105F2A00F86A070EF76403D00800F55005D0F6CFDB
:105F3A00E1FFF7CFE2FFE75068EC34F0064A072AA0
:105F4A00A7EF2FF006500224046E07500320056EB7
:105F5A0004C0F6FF05C0F7FFF86A070EF76403D01E
:105F6A000800F55005D0F6CFE1FFF7CFE2FFE75082
:105F7A000009D8A4C3EF2FF0C5EF2FF084EF2FF05C
:105F8A00C7EF2FF01200070E0101156F170E146FDD
:105F9A006A0EE82EFED7142FFCD7152FFAD700F079
:105FAA00010E2CEC34F023EE65F011EE16F0100E13
:105FBA00DBCFE3FFE806FCE2160E0001796F010E63
:105FCA007A6FE1EC2EF0A00EE82EFED7C00E2CEC74
:105FDA0034F022EEC4F011EE27F0050EDBCFE3FF1A
:105FEA00E806FCE2270E0001796F010E7A6FE1ECF8
:105FFA002EF043EC2EF0200E0101146F290EE82E2C
:10600A00FED7142FFCD700D00C0E2CEC34F0120063
:10601A00070E0101156F170E146F6A0EE82EFED7D0
:10602A00142FFCD7152FFAD700F0010E2CEC34F000
:10603A0023EE76F011EE16F0100EDBCFE3FFE80642
:10604A00FCE2160E0001796F010E7A6FE1EC2EF078
:10605A00A00EE82EFED7C00E2CEC34F022EECAF0C9
:10606A0011EE27F0050EDBCFE3FFE806FCE2270E70
:10607A000001796F010E7A6FE1EC2EF043EC2EF0FD
:10608A00200E0101146F290EE82EFED7142FFCD71B
:10609A0000D00C0E2CEC34F01200070E0101156F23
:1060AA00170E146F6A0EE82EFED7142FFCD7152F81
:1060BA00FAD700F0010E2CEC34F023EE87F011EE43
:1060CA0016F0100EDBCFE3FFE806FCE2160E000125
:1060DA00796F010E7A6FE1EC2EF0A00EE82EFED752
:1060EA00C00E2CEC34F022EED0F011EE27F0050EA3
:1060FA00DBCFE3FFE806FCE2270E0001796F010E11
:10610A007A6FE1EC2EF043EC2EF0200E0101146FB1
:10611A00290EE82EFED7142FFCD700D00C0E2CEC3B
:10612A0034F01200070E0101156F170E146F6A0E74
:10613A00E82EFED7142FFCD7152FFAD700F0010E40
:10614A002CEC34F023EE98F011EE16F0100EDBCFA3
:10615A00E3FFE806FCE2160E0001796F010E7A6F82
:10616A00E1EC2EF0A00EE82EFED7C00E2CEC34F097
:10617A0022EEBDF011EE27F0060EDBCFE3FFE806B4
:10618A00FCE2270E0001796F010E7A6FE1EC2EF026
:10619A0043EC2EF0200E0101146F290EE82EFED7D3
:1061AA00142FFCD700D00C0E2CEC34F01200A00EE9
:1061BA00E82EFED7C00E2CEC34F0000E0001806FE2
:1061CA00000E7F6F80BFF3EF30F0805109E10B0EB4
:1061DA007F5DD8A0F3EF30F0F5EF30F0F9EF30F053
:1061EA0012EF31F012EF31F0A00EE82EFED7140EA6
:1061FA002CEC34F000017F4B802B80BF0EEF31F086
:10620A00805109E10B0E7F5DD8A00EEF31F010EF3F
:10621A0031F0F9EF30F012EF31F0A00EE82EFED790
:10622A00010E0001796F080E7A6FE1EC2EF0120070
:10623A00A00EE82EFED7C00E41EC34F0000E096E17
:10624A00000E086E09BE33EF31F0095009E10B0E5A
:10625A00085CD8A033EF31F035EF31F039EF31F087
:10626A0051EF31F051EF31F0A00EE82EFED7140EA7
:10627A0041EC34F0084A092A09BE4DEF31F00950C1
:10628A0009E10B0E085CD8A04DEF31F04FEF31F069
:10629A0039EF31F051EF31F0A00EE82EFED7010EA2
:1062AA00026E080E036E7EEC2FF01200A00EE82E8E
